:020000040002F8
:10600000F05F0020DD630200E5630200E763020049
:10601000E9630200EB630200ED6302000000000090
:10602000000000000000000000000000EF6302001C
:10603000F163020000000000F3630200F563020058
:106040000967020061670200A56C0200F7630200A5
:10605000F7630200F76302008D650200F763020038
:10606000F7630200F7630200F7630200F7630200C0
:10607000F7630200F7630200F7630200F7630200B0
:10608000F763020079680200F7630200F763020019
:10609000F7630200F7630200E9680200ED6802009E
:1060A000F7630200F7630200F7630200F763020080
:1060B000F7630200F7630200000000000000000028
:1060C000F7630200F7630200F7630200F763020060
:1060D000F7630200F7630200F763020000000000AC
:1060E00000000000000000000000000000000000B0
:1060F00000000000000000000000000000000000A0
:10610000000000000000000000000000000000008F
:10611000000000000000000000000000000000007F
:10612000000000000000000000000000000000006F
:10613000000000000000000000000000000000005F
:10614000000000000000000000000000000000004F
:10615000000000000000000000000000000000003F
:10616000000000000000000000000000000000002F
:10617000000000000000000000000000000000001F
:10618000000000000000000000000000000000000F
:1061900000000000000000000000000000000000FF
:1061A00000000000000000000000000000000000EF
:1061B00000000000000000000000000000000000DF
:1061C00000000000000000000000000000000000CF
:1061D00000000000000000000000000000000000BF
:1061E00000000000000000000000000000000000AF
:1061F000000000000000000000000000000000009F
:10620000DFF80CD000F084F900480047A5920200A6
:10621000F05F002000B583B002900091019244F23B
:10622000010071466A4600F085FE03B000BD000023
:1062300030B450E8012F93B2C48923448489A34227
:1062400028BF1B1B0489A34202BFBFF32F8F00206E
:1062500007E0C3EA020340E80134002CE9D14FF023
:1062600001000A6030BC704750E8012FC2EA0242C8
:1062700040E801210029F7D1704730B450E8022FDF
:106280001FFAA2F3C488A34202BFBFF32F8F0020DE
:106290000DE0C48923448489A34228BF1B1BC2EAA2
:1062A000034340E80234002CE8D14FF001000A60BB
:1062B00030BC704750E8022FC2EA224240E8022177
:1062C0000029F7D17047034653E8022FD988B2EB73
:1062D000324F4FF0000017BF92B241EA014142EA4B
:1062E000014104E05A68B2EB324F08BF012043E895
:1062F0000212002AE8D1704730B4044654E8000F77
:106300000D4644E80053002BF8D1156030BC7047AF
:1063100030B4044654E8000F40EA010544E8005355
:10632000002BF7D1156030BC704730B4044654E8F8
:10633000000F00EA010544E80053002BF7D1156077
:1063400030BC704730B4044654E8000F80EA0105C1
:1063500044E80053002BF7D1156030BC704730B4CF
:10636000044654E8000F00EB010544E80053002BFD
:10637000F7D1156030BC704730B4044654E8000FC4
:10638000A0EB010544E80053002BF7D1156030BCA9
:10639000704770B404464FF0000054E8006F0D6879
:1063A000AE4207BF44E80023012044E800630E60CA
:1063B000002B1CBF0020F0E770BC704730B40446CF
:1063C00054E8000F88422CBF451A054644E80053A4
:1063D000002BF5D1156030BC70470000064880479F
:1063E00006480047FEE7FEE7FEE7FEE7FEE7FEE7BA
:1063F000FEE7FEE7FEE7FEE77969020001620200C0
:106400002DE9F05F0546002092469B4688460646E9
:10641000814640241BE0284641464746224600F07C
:1064200067F853465A46C01A914110D31146184690
:10643000224600F016F82D1A67EB01084F46224657
:106440000120002100F00DF817EB00094E41201E3D
:10645000A4F10104DFDC484631462A464346BDE844
:10646000F09F202A04DB203A00FA02F10020704756
:106470009140C2F1200320FA03F319439040704782
:10648000004870470CD4020040EA01039B0703D088
:1064900009E008C9121F08C0042AFAD203E011F863
:1064A000013B00F8013B521EF9D27047D2B201E025
:1064B00000F8012B491EFBD270470022F6E710B509
:1064C00013460A4604461946FFF7F0FF204610BD62
:1064D000421C10F8011B0029FBD1801A70470346AB
:1064E00011F8012B00F8012B002AF9D1184670474A
:1064F000202A04DB203A21FA02F00021704721FA19
:1065000002F3D040C2F1200291400843194670477F
:10651000064C074D06E0E06840F0010394E80700F0
:1065200098471034AC42F6D3FFF76EFE8CDB0200C6
:10653000ACDB020070B58C1810F8015B15F0070396
:1065400001D110F8013B2A1106D110F8012B03E00C
:1065500010F8016B01F8016B5B1EF9D12B0705D414
:106560000023521E0DD401F8013BFAE710F8013B5D
:10657000CB1A921C03E013F8015B01F8015B521E79
:10658000F9D5A142D8D3002070BD00002DE9F04715
:1065900000268AB0DFF85091B0464FF48075012490
:1065A00037460696284603F011FD38B1D9F80403A2
:1065B000204203D0284603F0FFFC26432D1D640033
:1065C0007F1CADB2082FEDD34FF4BE74204603F00C
:1065D000FDFC48B1204603F0EFFC46F0004606AA59
:1065E0000121002003F0D4FC404D16F0FF0F15D020
:1065F0000127002437420DD009EB8401D1F81005A2
:10660000D1F81015C0F3042055F82420C1F301413E
:1066100002B190477F00641C082CEBD3002E5FDA98
:106620004FF0FF30CDF8108054E0281910F8507F5B
:1066300090F9000027F0C008401C3BD007A9404655
:1066400003F02EF910B34FEA9719404602F052F8C2
:1066500055F820701FB1B9F1030F03D006E0B9F16E
:10666000030F27D104A9404603F022F94FF0A041BF
:1066700001EB8800D0F8000706A9C0F3014A4046A4
:1066800003F00EF918B1BAF1020F03D012E0BAF11B
:10669000030F0FD1B9F1030F08D1BAF1020F1DD0CA
:1066A0000221404603F058FC761CF6B217B1494669
:1066B0004046B847641C042CB7D3002E10D06A465D
:1066C0000121002003F064FC06990098884207D05D
:1066D00006900498002634460790A6E70321E0E7D9
:1066E0000AB0BDE8F08700000060004028360020B6
:1066F00000F01F02012191404009800000F1E020DC
:10670000C0F800117047000070B54FF48076304635
:1067100003F016FA114CB50560B1304603F017FAD4
:106720000120C5F80803607920B901206071216853
:10673000002088474FF48276304603F001FA0028A3
:106740000AD0304603F003FA0220C5F80803216896
:10675000BDE870400120084770BD0000D02B00202C
:106760002DE9F047224DD5F80C0100283ED000203D
:10677000C5F80C01D5F80C011E481F491F4E401AE0
:10678000C108032000EB0140F27904461CA103F08C
:106790000BFEF0794FF00109012825D11D48006852
:1067A000C00721D0DFF87080D8F8007020461BA108
:1067B0003B687A6803F0FFFD384605F0E1FC50B114
:1067C000224803F01BF8070001D100F0F5FBC8F8E0
:1067D000007086F80290F069401CF061B3782046A2
:1067E000F2691BA103F0E7FDC5F80890BDE8F0874A
:1067F00000100040BCDB0200BCDB02000C2B0020C0
:106800006D5F726164696F5F73746174653D307848
:1068100025780A000014004004150040705F706B7A
:10682000742D3E6465766963655F6E616D653D30AC
:106830007825782C705F706B742D3E73657175656B
:106840006E63653D307825780A00000044DC020064
:106850006D5F7263765F636F756E743D3078257817
:106860002C6D5F726164696F5F72656365697665DF
:10687000643D307825780A0002490248091F0968FA
:10688000006808473C2C002000F012BA70B50E4694
:10689000144900EB400001EBC0051446E86A1835C6
:1068A00020B101280FD0022805D113E0284600F0BE
:1068B00033FAA04201D2002411E022463146284694
:1068C00000F062FA0BE0284600F026FAA042F4D26B
:1068D0000446F2E73146284600F029FA04462046ED
:1068E00070BD0000643D002004F0D4B870B51348BA
:1068F000D0F8001100291FD00025C0F80051104821
:10690000104B0121C27A03EBC2025160C068D0F87B
:1069100048350D480D490E4C401AC0080321A269A4
:1069200001EB00400BA103F046FD6570E16DBDE891
:106930007040104802F084BF70BD0000007001403C
:106940000C34002000F00140BCDB0200BCDB020084
:106950000C2B00206D5F6D61737465725F636F75E2
:106960006E7465723D25642C43435B325D3D256446
:106970000A00000044DC0200F0B5B84AB8494FF004
:1069800080541368D4F830010978D4F83421451CB8
:10699000C1F3031106D0844601270025BCF1060F80
:1069A0000BD102E003F0FF0CF6E7B4F82463DFF844
:1069B000B4C2C6F30426CCF80060DEB2062E06D1BF
:1069C000032904D1DFF8A4C2A74ECCF87460461C9A
:1069D00004D08446BCF1060F0BD102E003F0FF0C9B
:1069E000F8E7D4F84462DFF888C2C6F34236CCF840
:1069F0000060DEB2062E08D1032906D19D4ED6F8DE
:106A000000C02CF0807CC6F800C0461C04D0844630
:106A1000BCF1060F0CD102E003F0FF0CF8E74FF0D9
:106A20008046C6F80C51C6F81051914E361F35609D
:106A3000DEB2062E08D1032906D1DFF834C20326C0
:106A40000CF1640CCCF80060DEB2062E11D10329E3
:106A50000FD1DFF824C20526CCF80060864E7836C8
:106A60003760854E083635600CF1040C3F26CCF8B3
:106A70000060461C06D084464FEA0206BCF1060FB1
:106A80007ED103E003F0FF0C0E46F7E7032E7DD026
:106A9000042E7BD0794E3668DFF8E4C1CCF8006074
:106AA000764E361D36680CF1040CCCF80060734E3F
:106AB000083636680CF1040CCCF800606F4E0C36CA
:106AC00036680CF1040CCCF800606C4E1036366859
:106AD0000CF1040CCCF80060684E143636680CF1EA
:106AE000040CCCF80060654E18363668DFF890C1AB
:106AF0000CF1200CCCF80060604E1C3636680CF1AE
:106B0000040CCCF800605D4E203636680CF1040CA5
:106B1000CCF80060594E243636680CF1040CCCF8E1
:106B20000060564E283636680CF1040CCCF8006034
:106B3000524E2C3636680CF1040CCCF800604F4EE7
:106B400030363668DFF838C10CF1400CCCF8006004
:106B50004A4E343636680CF1040CCCF80060474ECF
:106B6000383636680CF1040CCCF80060434E3C36E5
:106B700036680CF1040CCCF80060404E403600E062
:106B800004E036680CF1040CCCF80060461C05D01B
:106B90004FEA000CBCF1060F09D102E003F0FF0C34
:106BA000F8E7D4F85842374E04F04F043460441CE0
:106BB00003D00346062B09D101E0DBB2FAE73249E4
:106BC0000B68DB0702D06FF001030B6006280AD1C7
:106BD000032A08D0042A06D0052A04D02B480168CD
:106BE00041F48061016023487438016841F4700108
:106BF0000160BFF34F8FBFF36F8F4FF01021D1F8BB
:106C00000002002803DBD1F80402002822DA204A1F
:106C1000176020480368002BFCD01523C1F8003210
:106C20000468002CFCD0C1F8043201680029FCD0B3
:106C3000156001680029FCD0BFF34F8F0D48F03874
:106C40000168154A01F4E06111430160BFF34F8F01
:106C500000BFFDE7124911480860F0BDE00F00F0E9
:106C6000E80F00F0403501400DF0ADBA00C007401C
:106C70003C050040FCED00E010560040040400100C
:106C800020C50040E40E0040000400403C170040D6
:106C900004E5014000E401400400FA050090D0033F
:106CA000B02C00200148006800470000D82B0020CD
:106CB00010B5124C02202061606111A0A06104F1A6
:106CC0007800E0614FF4007020620020A0626062F2
:106CD0000BA1A164E06204F51E71E1641021A065BE
:106CE000C4E91410E06509A1E01DFFF7F8FB08A155
:106CF0002046FFF7F4FB2020A07110BD643D00206A
:106D00005465726D696E616C00000000525454004D
:106D100053454747455200000269C1688A4203D87B
:106D20008068401A104400E0501A401E70472DE958
:106D3000F047C4681746894606464FF00008306998
:106D4000A04201D9051B02E0B168201A0D1AB068F3
:106D50006D1E001BA84200D80546BD4200D33D462B
:106D600070682A4620444946FFF78EFBB0687F1BB7
:106D70002C44A844A944A04200D10024F460002F70
:106D8000DDD14046BDE8F0872DE9F0410446884654
:106D9000D4E90207C51BE168606816460844B5429D
:106DA00006D94146FFF770FBB819E060BDE8F081F5
:106DB0002A464146FFF768FB761B08EB0501324681
:106DC0006068FFF761FBE660F0E70000014A0249F6
:106DD00000F026B8E98E02004C2C002002E008C822
:106DE000121F08C1002AFAD170477047002001E045
:106DF00001C1121F002AFBD1704700000121202889
:106E000003DA81400548014003E0402802DA2038D7
:106E1000814009B10120704700207047FC06FFBD8A
:106E20002DE9F04116460F460446002503E0394699
:106E3000B047641C6D1C20780028F8D12846BDE8B6
:106E4000F08190F82400012801D01F207047EE2027
:106E5000704710B501220221002001F025FA08B187
:106E6000072810D107220221012001F01DFA08B1E4
:106E7000072808D100210A22084601F015FA08B1B6
:106E8000072800D1002010BD022001F0C3B8000087
:106E900070B50024064D06E06868012110F8340042
:106EA00003F0FEFE641C28788442F5D3002070BDF8
:106EB000E02B0020F8B516460C4605460A2A01D2FA
:106EC0000720F8BD03F0E6FF18B903F0ADFF002876
:106ED000F7D1134F102113487D603C70BE60FFF75F
:106EE000ECFA0020C7E904000F4E0DE005EBC400EA
:106EF0003168009181788DF8011000780B4A69465D
:106F000003F020FF0028DCD1641EE4B2EED2BDE81D
:106F1000F84005480021064A001D00F087B800002F
:106F2000E02B0020F836002000D10200B98F0200CB
:106F3000C58A020072B603F0DDFA00BF03F016F94D
:106F40000028FBD111481249401AC408012000EB67
:106F5000044010A103F024FA11480068C00700D0D3
:106F600000BE022000EB04400EA103F019FABFF3AB
:106F70004F8F0B48E43801680E4A01F4E061114379
:106F80000160BFF34F8F00BFFDE7000024DC02006B
:106F9000BCDB0200466174616C206572726F720026
:106FA000F0ED00E053797374656D2072657365745C
:106FB000000000000400FA050EB500210091CDE9A3
:106FC00001106A4644F20100FFF7B4FF0EBD10B590
:106FD0008268C368934203D001F05AFF002010BDBD
:106FE000052010BD29B112B1531E134203D0092050
:106FF00070470E2070470160838000218160C1606E
:107000000846704710B58268C3689A1A83889A4206
:1070100003D801F047FF002010BD042010BD000080
:10702000014801F0B6BD0000002C00203AB1006814
:107030000129426100D00021016100207047072032
:107040007047000038B51148082358224168009164
:107050000F49006802F04BFB002815D10D4A694624
:107060000D4801F09BFD04000ED101210A4801F0FA
:107070000CFE0123094A1946074801F062FD064942
:10708000012008390870204638BD000008D10200F0
:107090001837002065BA0200002C0020FFFF7F0097
:1070A00070B50446007F0D4608B1002070BDA26196
:1070B00001F068FF401941F10001C4E902012069B3
:1070C00000B125612146BDE87040002005F09AB965
:1070D000014600200877012005F094B970B50A4EEA
:1070E00001460A48B578FFF772FF04464DB100200B
:1070F000B070711C0122C81D02F09AFD08B1FFF7A3
:107100005BFF204670BD00001C2C00207037002063
:10711000F0B5244E89B01F460D00044672603FD082
:10712000A888296882B22048FFF75CFF002835D183
:10713000A889A96882B21C481030FFF753FF0028C5
:107140002CD1202219496846FFF79EF96069069004
:10715000207C00B101208DF814008DF81C70607C3B
:1071600000B10E208DF81500E0680290A068039031
:1071700020680190606800900A480D4A694608300E
:1071800002F022FD002809D1B0702068401C05D013
:1071900004490122491CC81D02F04AFD09B0F0BD96
:1071A0000720FBE71C2C0020703700201CD10200B8
:1071B00011CA020010B501461048FFF723FF040072
:1071C00019D10F480F4A0178515C19B1001D04F024
:1071D000F1F802E00C3003F0C7FF60B90849074836
:1071E0000839FFF7F4FE30B905490122083904488F
:1071F00002F02EFD0446204610BD0000803700201E
:10720000242C0020C42B002030B5EFF3108172B67F
:107210000D4A9468012324B10370002900D162B69D
:1072200030BD93604FF0E023D3F88051074C2540E8
:107230001560C3F88041D3F8844154605A17C3F8ED
:10724000842100220270E8E790370020FC06FFBD91
:107250000B498A68002A11D000280FD1EFF3108063
:1072600072B60B684FF0E022C2F800314B68C2F8EA
:10727000043100228A60002800D162B67047000005
:10728000903700202DE9F041064608680C46411C65
:107290004FF0A0474FF0010506D005FA00F1C7F8FE
:1072A0000815206802F044FE6068411C02D00021ED
:1072B00002F02CFE3168A069C1F82405607D227DB2
:1072C00031681043C1F86C05D4E900123068C0F889
:1072D0001425C0F80C15207D012815D1A068411C8B
:1072E00002D0002102F012FEE068411C05D085406A
:1072F000C7F80855E06802F01BFED4E902123068B6
:10730000C0F80825C0F81015BDE8F0812DE9F0415E
:10731000064608680C46411C4FF0A0474FF0010597
:1073200006D005FA00F1C7F80815206802F00AFE39
:107330006068411C02D0002102F0F1FD3168A069B3
:10734000C1F82405607D217D32680843C2F86C05D0
:10735000D4E900123068C0F80C15C0F81425207D5F
:10736000012815D1A068411C02D0002102F0D7FDF0
:10737000E068411C05D08540C7F80855E06802F078
:10738000E1FDD4E902123068C0F80825C0F81015F4
:10739000BDE8F08170B51500044609D000202860D2
:1073A00034B1206820B1A079800703D0072070BDD8
:1073B0000E2070BD084600F01FFBC0B2142804D098
:1073C0002179814203D8042070BD052070BDE28878
:1073D000216800FB02102860002070BD2DE9FC47E9
:1073E000002517880646158090F82D00144689461A
:1073F00030B13A462146484600F012FB051E09D13D
:10740000B0784FF00C0A18B32088C846001DB84267
:1074100002D95046BDE8FC87684679DF0028F9D1DB
:107420002088032108F8001020881921401C80B210
:10743000208008F800102088401C80B2208000EBDB
:107440000801BDF8000005F084FC21880844208074
:10745000F0780222C8B1218896F9033001F1030CBB
:107460004846BC45D5D8425421884FF0010C491CF0
:1074700089B2218000F801C02188491C89B221808D
:1074800009F801302088401C20807068B8B121883C
:1074900090F9003001F1030C4846BC45B9D842547C
:1074A00021880A22491C89B2218042542188491C22
:1074B00089B2218009F801302088401C2080308961
:1074C00050B1CDE900474B460622022106F10800E3
:1074D00005F052FD051E9DD1308A50B1CDE900471F
:1074E0004B460722032106F1100005F045FD051E5D
:1074F00090D1308B50B1CDE900474B461522142175
:1075000006F1180005F038FD051E83D1306A30B150
:107510003B462246494601F00AFA051EDBD1706A55
:1075200030B13B462246494602F004F8051ED2D14E
:1075300096F82C0038B13B4622464946304604F0C6
:10754000F1FB051EC7D1307838B13B46224649468B
:10755000304602F079F8051EBDD128465AE718B525
:1075600004460020ADF8000013466A46204600F0AD
:1075700006F8002802D0BDF80000204418BD70B500
:10758000C8B1C2B10024158803E0065D641C344410
:10759000A4B2A54203D8061976789E4201D08C4247
:1075A000F3D38C4207D2005DA31C401E9BB280B275
:1075B0001C188C4201D9002070BD138070BD80F86A
:1075C000301070472DE9F0410D00044606D02CB173
:1075D00095F87A000026012803D006E00E20BDE8C9
:1075E000F08195F89800012829D0D5F8A00004284A
:1075F00025D0D5F89C00042821D04FF00108A670B2
:107600002C2205F17801201DFEF73EFF84F8306042
:10761000D5F8A4006063D5F8A800A0634FF6FF700A
:10762000A4F8240404F58260C4F82004C4F8266495
:10763000A4F82A6484F82C64207810B104E00720B0
:10764000CDE7FF2084F8540004F155072046C4F824
:107650001074FFF7F6FBA4F8140404F21442394640
:107660002846FFF7BBFE0028B9D104F23120C4F848
:1076700018042046FFF7E5FBA4F81C0404F21C42A2
:1076800005F13C00D4F81814FFF7A8FE0028A6D195
:1076900084F85180208BA4F8480084F83C8026644C
:1076A00084F85060606900216064454604F13C0242
:1076B000781E72DF002892D1257090E710B50288FD
:1076C000102A1BD0112A20D0262A1DD1007A0C4660
:1076D000012801D0022817D1A0780521401CB0FB59
:1076E000F1F201FB1201204600F03AF800280BD01D
:1076F000A16B002908D0BDE810400847C27B012AD1
:1077000002D18088A1F8240410BD0C46002184F821
:107710002E148088B4F824148842F5D120790028EA
:10772000F2D10121DFE710B5044690F8540074DF70
:10773000012084F82E04002084F8300484F85000DE
:107740000621204601F0BCFB002808D1A178204684
:1077500000F006F810B1A16B01B18847002010BD00
:107760002DE9F05F044600780F4698B1A770002518
:10777000C4F82654A4F82A5484F82C54A07901267D
:1077800008B1012F09D0E07980B1012F05D0022F77
:1077900003D00BE00820BDE8F09F616B21B184F8B5
:1077A0002D640820884701E084F82D5404F2274115
:1077B00000200A5C0AB1304603E0401C0628F8D3DA
:1077C00000204FF002084FF0030B012F06D0022FCC
:1077D0000CD0032F0FD0042F15D110E0A17929B1BF
:1077E00094F8241011B908B130460DE0E17911B1D7
:1077F00008B1404608E0207A08B1584604E0607AB3
:1078000008B1042000E02846A070616B41B1032854
:1078100001D0042804D1607910B194F82E0498B1F5
:1078200084F82F5404F13C0018210746FEF745FE6A
:1078300084F83C6004F12C0003F058FF58B194F830
:107840002C0084F8510008E084F8305484F82F6448
:1078500007208847E6E784F8516094F8240058B17F
:1078600004F1280003F042FF20B194F8280084F8C6
:10787000520001E084F8526084F85050A27804F27B
:10788000264104F582694FF0060A052A64D2DFE832
:1078900002F07C030F22420084F83160C4F82054C7
:1078A000C4E9101584F83C808020A4F8480055E015
:1078B00084F8318094F82420384612B107220270EF
:1078C00001E080F800B0228A8281C4F8205441602F
:1078D000E168B96042E06069B860208BB88194F8D3
:1078E00024003D460028204602D084F83CA001E058
:1078F00084F83C6005F012FB50B185F81480042137
:10790000204601F0DDFA38BB052184F8311021E072
:1079100084F831B01EE0E069B860208CB88194F83A
:1079200024003D460028204602D084F83CA001E017
:1079300084F83C6005F0F2FA48B185F8148004211F
:10794000204601F0BDFA38B984F831A002E00420E5
:1079500084F83100C4F82094A07878B13A4604F154
:107960005400D4F8201472DF00287FF414AF94F888
:10797000301094F8540073DF0028F6D1616B11B118
:1079800094F831008847002005E784F83150F5E786
:1079900070B5040012D001461C221448FEF774FD95
:1079A0001248134D0560206850B17ADF002806D1D7
:1079B0002068016829604068686005E00E2070BD9D
:1079C0000B487BDF0028FAD108484FF6FF711438C6
:1079D000084A20F8041B0549343901600021FFF7EB
:1079E00025FB0028EBD0032070BD00007C35002073
:1079F000BC2B0020B5CE020010B5044600F006F8FE
:107A000008B1204610BD142010BD0000142801D379
:107A1000002070470146014801F0B3BE9C350020AC
:107A20007CB5054608880C460930904201D90C20E7
:107A30007CBD68466DDF0028FAD121880820685493
:107A400020881B21401C80B2208029542088401CA3
:107A500080B220802844DDF801100160BDF80510D7
:107A600081802088801D80B220809DF80010490808
:107A700000D0012129542088401C208000207CBD9A
:107A8000F8B52B4D018804466E8821293BD015DCC2
:107A90002848294A1029A0EB02004FEAD0004FF0F5
:107AA000030202EB004013D0112925D0132929D15C
:107AB00000231A46852130467FDF17E03B2932D06C
:107AC00052292AD056291DD18088132176DF0DE056
:107AD0001AA102F065FC072000F008FC08B1FFF7CE
:107AE0006BFAA1886980184801F0B2FF002809D01C
:107AF000BDE8F840FFF760BA14A102F051FC4FF660
:107B0000FF706880F8BD00200090A08869468FDF74
:107B10000028F7D0FFF750FAF8BD00231A4619469F
:107B20003046B1DFE2E78088132176DFDEE7000030
:107B3000E02A002024DC0200BCDB0200436F6E6EF2
:107B40006563746564000000BC2F002044697363A2
:107B50006F6E6E65637465640000000010B51A4CAA
:107B60000188606810290ED011292BD1401E606059
:107B700028D1FFF76EF9002824D02168002921D0F0
:107B8000BDE810400847D0B900210122084600F0A6
:107B90008BFB08B107280FD107220221012000F03A
:107BA00083FB08B1072807D104220221002000F03E
:107BB0007BFB20B1072802D0216801B188476068AB
:107BC000401C606010BD0000B42B00202DE9F04780
:107BD00001883B4E40F2F3194FF6FF7510291BD078
:107BE00011293ED0122954D0502946D1C188F2899A
:107BF000841D914241D1618902293ED18688304657
:107C000001F0F8F9050038D004F10C0000F0BEF9DD
:107C1000A8B3294630464EE0C17B87880446012937
:107C20002BD1A846284601F0E5F9050017D02F8092
:107C300000202872234843464A460168C5F80A10C6
:107C40004068C5F80E0004F1100105F10A0001F0CA
:107C50008BFA6872F08900280FD129462AE00420A7
:107C600013E0808801F0C6F9040006D06068FFF7D1
:107C70002FFA08B104F026F82580BDE8F087FFE769
:107C80006868FFF725FA0028F7D0BDE8F04704F050
:107C900019B887880646384601F0ACF90400ECD0E4
:107CA0002B464A4606F1080104F10A0001F05CFA8D
:107CB000607221463846BDE8F04700F07FBE000004
:107CC0007C350020BC2B00202DE9F04F044686882F
:107CD0000188424897B0834610290CD0112950D012
:107CE000103019296AD01A2974D1217A0C09042C70
:107CF0004DD301224CE0394D083DA868C0430B909C
:107D000069680BA801F05EFD0B990CA800F0F0FD6E
:107D10002C220CA96846FEF7B7FB0027E946A846C7
:107D200010E000BF09EB47005FF00005B0F804A0C9
:107D300008EB85005146001D01F018FD6D1C1E2D3D
:107D4000F6D37F1C0098B842ECD8142E05D317B098
:107D50000420BDE8F04FFFF72FB93146584601F037
:107D60001BFD314608F1040001F016FDE07B0128FF
:107D700030D017B03146BDE8F04F1848001D01F073
:107D80000BBD17B03146BDE8F04F01F0EFBC00224B
:107D9000314601F090F8032C01D3012200E00022CB
:107DA0000E4831460C3001F086F8022C01D3012236
:107DB00000E0002209483146083006E0217A002917
:107DC00008D1617AC1F3C002314617B0BDE8F04F67
:107DD00001F071B817B0BDE8F08F0000A0350020A9
:107DE000F0B585B016460F4604001D4614D004AA0F
:107DF00019466069FFF7CEFA00280BD1A5F57F4040
:107E0000FF380BD0049848B1007848B13088F42886
:107E100008D9072005B0F0BD0E20FBE70520F9E7E3
:107E20000820F7E700200090019002900390A088BE
:107E3000ADF8000001208DF80200CDE90267694627
:107E40002846AEDFE6E7000070B5334D04008EB083
:107E50002DCD08AE86E82D005BD0E9B30868A0619F
:107E6000214608A862DF002851D1207801258DF82D
:107E70003200ADF83050A21C0CA92846A8DF00281B
:107E800045D120216846FEF718FB0220ADF800001E
:107E900020788DF802008DF80C509DF80D00F42626
:107EA000ADF8046040F00C008DF81150ADF80650AC
:107EB0008DF80D008DF81250608804F10C026946AF
:107EC00000F020FC002822D120216846FEF7F5FAB8
:107ED0000320ADF8000000E01BE020788DF80200E0
:107EE0008DF80C509DF80D008DF81150ADF8046020
:107EF00040F010008DF81250ADF806508DF80D00CE
:107F00008DF813506088221D694600F0FBFB0EB00F
:107F100070BD0E20FBE70000E4D0020070B588B011
:107F20000446002924D0002C22D00846218810299C
:107F300020D0502924D057291AD10546A18840695C
:107F400006AAFFF727FA002812D1069E30780028EB
:107F50000ED018216846FEF7B0FA01208DF8000017
:107F60000195A088ADF808000396A969684688477E
:107F700008B070BD08B02146BDE8704003F094BA67
:107F800008B02146BDE8704003F06EBB007800F0F9
:107F9000010070470149085C704700009CD0020056
:107FA0000649095C4FF0A040D0F81005C84010F019
:107FB000010000D0012080F0010070479CD0020039
:107FC0002DE9FC410646C0074FF000050ED0104FCA
:107FD00000240122385D009500231146019501F02F
:107FE0004DFF641C042CF4D300F046F8B0070DD507
:107FF000074E0024361D0022305D032300951146F4
:10800000019501F03BFF641C042CF4D3BDE8FC8116
:1080100098D0020007490B5C4FF0A041D1F804252D
:108020000120984020EA0203C1F808351040C1F849
:108030000C05704798D002000249085C012101F04C
:108040009CBF000098D002000249085C002101F0AA
:1080500094BF000098D002000649095C4FF0A04090
:10806000D0F80405C84010F0010000D0012080F0D5
:108070000100704798D0020010B500242046FFF799
:10808000DBFF641C042CF9D310BD10B5002420467E
:10809000FFF7DAFF641C042CF9D310BD10B50246BB
:1080A000064B4FF0FF3000215C5C944201D1084642
:1080B00010BD491C0429F7D310BD00009CD002005C
:1080C00070B50C4E0C004FF0000530600BD0012055
:1080D00000F06AF808B1022004E0002000F064F823
:1080E00000B10B202070706810B9FEF7B2FE054693
:1080F000284670BDB42B002010B5002000F042FAD5
:1081000008B1062806D1012000F03CFA08B1062883
:1081100000D1002010BD00002DE9F0470D4681463A
:10812000FFF7BCFF0446042836D2DFF874801B48F2
:108130001C4EA8F10C0725B3012D0ED0022D2BD11A
:1081400004EB440030444578002D25D0B96800295F
:1081500022D02846BDE8F047084704EB4401755C8F
:108160000E44717849B10E4A4FF48041093A806853
:10817000FEF796FF08B987F80390B17808F8041065
:10818000E2E78068FEF7A4FF04EB4401314418F8ED
:1081900004008D78A842D7D0BDE8F087A0D00200B7
:1081A000B02B002018350020042801D2FFF7F8BEBC
:1081B00000207047011F244810B542880E2942D282
:1081C000DFE801F02E41413841412A414141070792
:1081D00007071E491E4B0278C91AC908032303EB7F
:1081E00001445AB100210170FFF74FFF04F0A4FBD6
:1081F00008B1FEF7E1FE204616A109E00121017059
:10820000FFF73AFF280001D0FEF7D6FE20461BA15B
:10821000BDE8104002F0C4B8BDE8104003F0DEBD78
:108220001321104676DF0CE000280CD0BDE810408A
:10823000FEF7C2BEA2F57F40FF3804D11948FFF710
:1082400072FA0828F0D110BDE02A002024DC0200D8
:10825000BCDB020053746F7070696E672073796EB7
:108260006320626561636F6E207472616E736D6905
:108270007373696F6E210D0A000000005374617200
:1082800074696E672073796E6320626561636F6ED7
:10829000207472616E736D697373696F6E210D0A5C
:1082A00000000000C82F002070B50023042810D261
:1082B0000D4D00EB4004012A02D101290CD000220F
:1082C000094E00EB4000304461B1012906D002297B
:1082D00006D00723184670BD0E30C2B22A55F9E702
:1082E0004270F7E78270F5E718350020044A01462E
:1082F00000201279D20702D0084600F04DB870472E
:10830000A42B002070B506461E480024C0E9016178
:10831000B00720D50025012211462846FFF7C4FFEB
:108320006D1C0446042D02D2002CF4D013E094B945
:1083300040F2333204211448FEF7BCFD04000AD198
:10834000FEF7A6FD040006D10F48104A0021001FC9
:10835000FEF76CFE0446F00712D00120FFF730FE56
:1083600074B909480A4A00210C38FEF75FFE040080
:1083700006D10548074A01210838FEF757FE044692
:10838000204670BDA42B0020ACD0020089860200DC
:10839000DD910200896E02002DE9F05F774C054601
:1083A0000026607818B10020607000F0FFFE744F66
:1083B0004FF448794FF47A6A4FF4C87B4FF00108C4
:1083C000182D5ED2DFE805F00C13132E3C495E63D6
:1083D000818A818AD79595959595C4C7CBCED7D7F5
:1083E00000F0E4FE3868FEF773FE06467FE00020EA
:1083F000FFF732FE00284FF0000008D0FFF71CFE08
:108400000220FFF721FE022D08D050464FE0FFF773
:108410001BFE0220FFF710FE022D01D1484646E068
:10842000584644E00020FFF717FE00284FF00000F8
:1084300002D0FFF701FEF1E7FFF706FEC82036E0A5
:108440000020FFF709FE00284FF0000002D0FFF7E0
:10845000F3FDDAE7FFF7F8FDE2E70020FFF7FCFDA8
:1084600000284FF0000002D0FFF7E6FD01E0FFF723
:10847000EBFD257040F6CD4100223868FEF710FE76
:10848000064662E00020FFF7C5FD257022E00020CF
:10849000FFF7E2FD00284FF0000004D0FFF7CCFD0D
:1084A0004FF4FA7003E0FFF7CFFD4FF47A70410C00
:1084B000C0034FF47A72801841F100012570520018
:1084C0000023FDF79DFF0146D6E784F801800120D7
:1084D000FFF7A0FD002240F26661CEE784F801803C
:1084E0000120FFF797FD00224FF40051C5E72570EA
:1084F0002BE07868FEF7ECFD0646D5F1110000D0C0
:108500002EB10220FFF798FD0020A0701DE0012889
:1085100016D980B2C8214843C117C90341EA504166
:10852000C0034FF47A72801841F100015200002319
:10853000FDF766FF014600227868FEF7B1FD0646AA
:108540000220FFF781FD84F802803046BDE8F09FED
:1085500000F02CFECBE700F029FE002008E000F040
:1085600025FE04E000F022FE0020FFF76DFD012053
:10857000FFF76AFDBBE7FFF788FDB8E7A42B0020F3
:10858000A0D00200012104F05EBD00002DE9F843F7
:108590000546861C00208DF8000090460F464FF0DF
:1085A00001096846FEF730FE1B4C20683860D4E9AC
:1085B0000001401AA16804F21C47081A0EE00121CC
:1085C000384601F0F9F800F01FFE0146384601F088
:1085D000F3F8D4E90001401AA168081A401C864249
:1085E000EDD8B8F1000F03D0052065F3891002E043
:1085F000062065F39F50A2682168114004EB8101B9
:10860000C8602068304420609DF80000FEF720FE1E
:108610004846BDE8F88300004039002070B50D469B
:1086200004460A2902D10D21FFF7F8FFA06822684D
:10863000411CA1601554D4E90101814204D32046B4
:10864000BDE8704001F021BB70BD0000034803C8C5
:10865000814201D10120704700207047403900203D
:10866000034630B5074800210478426806E000BFA1
:1086700002EBC10005789D4203D0491CA142F7DB03
:10868000002030BDE02B002000780221FFF744BD20
:1086900005494FF0FF32082841F8202002D3084452
:1086A00080F848207047000028360020F0B54FF0D1
:1086B000FF3512B10023082601E008230C260C4CDC
:1086C00005E000BF54F823707F1C04D05B1CB3424C
:1086D000F8D32846F0BD26185DB286F8305044F82D
:1086E0002310002AF5D1E11881F84800F1E70000D5
:1086F000283600200249084490F9300070470000F5
:10870000283600202DE9F0438146887891B09046C4
:108710000C4600B901208DF83E002088ADF83C00E1
:1087200000250095607C694603F040FB6E46A07C06
:10873000711C03F03BFBE07B00289DF8020002D097
:1087400040F0080001E020F008008DF80200217CD4
:1087500011B140F0100001E020F010008DF802008F
:10876000217B11B140F0010001E020F001008DF803
:108770000200217D09B1022100E0012161F34200E4
:108780008DF802001C2102A8FDF797FE607BC10650
:1087900001D4800617D50E950EAFE07C791C03F04E
:1087A00005FB9DF83800079720F00F00401C20F0D3
:1087B000F00010308DF838009DF83A0020F00600E7
:1087C000801C8DF83A00607B8DF80800A07B8DF846
:1087D0000900142109A8FDF770FE0FA8CDE90906CC
:1087E000A088ADF83000A06820B1E088ADF82C007A
:1087F000A0680D90A06998B301950088ADF81000AD
:10880000A06901AD01A94088ADF81200A0694068D7
:1088100006950390A069007B03F0C8FAA069691C63
:10882000407B03F0C3FAA069807A00289DF8060017
:1088300002D040F0080001E020F008008DF80600AA
:10884000A169C97A11B140F0100001E020F01000D8
:108850008DF80600A169097A19B140F0010002E023
:108860000DE020F001008DF80600A169897B09B1B7
:10887000022100E0012161F342008DF80600E06969
:1088800000B10590434609AA02A94846AADF11B0E3
:10889000BDE8F08370B5084C050009D0103421689C
:1088A000002907D008682060496828468847F6E70D
:1088B0000834F4E770BD000014360020054A012199
:1088C00020B1012805D19170FFF7E4BF517000205D
:1088D000FAE770471436002010B5D0E90234D1E928
:1088E0000220D11AA04101D3012010BD002010BDEB
:1088F00073B58CB00646002000900D9880B100241E
:108900006D4621460DA800F03CFF30B1009805EB04
:10891000400084800098401C0090641C142CF0D30C
:108920002C2269463046FDF7AFFD0EB070BD2DE933
:10893000F04117880646B81D14460D46984202D9E4
:108940000C20BDE8F0813188072206290AD34FF4B4
:10895000486C4FF6FF73614501D9994202D1708886
:10896000062801D21046ECE7604501D99842F9D1BA
:10897000994203D0984201D08142F3D80520E855AE
:1089800020881221401C80B2208029542088401C5D
:1089900080B220804119308804F0DBF92188084436
:1089A00080B220804119708804F0D3F921880844EE
:1089B00020800020C5E7FEF7FFBA000038B54A7AEC
:1089C0000F4B62B100220A725969002906D00122B8
:1089D0008DF80020ADF802006846884738BD0A7A55
:1089E00062B19B684C68024619462046FEF758FB68
:1089F0000028F3D0BDE8384003F064B95B68F1E7C4
:108A00007C35002070B588B00646002005900690A1
:108A1000ADF81410ADF816100190029001AA05A946
:108A2000304690DF050021D002F0D8F80346114807
:108A300011493246401AC108012000EB01400446AA
:108A40000E4901F0B8FCBDF8042012B9BDF80600CB
:108A500028B1BDF80630204609A101F0ACFCBDF8F4
:108A600008201AB12046164901F09EFC08B028469D
:108A700070BD0000C4DB0200BCDB020010D40200A9
:108A80005468652072657175657374656420545807
:108A90002F5258207061636B6574206C656E67742B
:108AA0006820697320746F6F206C6F6E6720627925
:108AB0002025752F2575206F63746574732E000053
:108AC0005CD4020070B500240F4D10E0686800EB24
:108AD000C406307802F09EF97178012901D0012195
:108AE00000E000214140307800F058F9641C2878FB
:108AF0008442EBDBD5E90401084303D0BDE87040B4
:108B000003F09CBC70BD0000E02B002010B50021DC
:108B1000024800F062FE80F3100010BD5C3D0020B2
:108B20004FF480328A400168C1F848230068C0F8D9
:108B3000082370474FF4A07202EB810189B200F064
:108B40009DB92DE9F04105460E464FF4A07000EBAB
:108B5000860081B228684FF48034B440984622F0F1
:108B60007F47C0F808432868C0F84843286801F0E8
:108B7000E7FD286800EB8600C0F840752868C0F85B
:108B80004443B8F1000F02D02868C0F80443BDE8A0
:108B9000F0810068D0F804057047000070B5437993
:108BA000224C44F823204279241D04EBC202204BBE
:108BB0001579204A9A1AD3082DB10824022000EB17
:108BC00003401DA12EE002680D88C2F8085590F9F7
:108BD00004208978002A4FEA411106DA02F00F02D8
:108BE00002F1E02282F8141D03E002F1E02282F893
:108BF000001490F90410012201F01F0502FA05F596
:108C00004909890001F1E021C1F80051417904EBE3
:108C1000C1010A71417944F831000320002400EBBE
:108C200003400EA101F0BCFB204670BD382C002093
:108C30000CDC0200BCDB020052544320696E7374EA
:108C4000616E636520616C726561647920696E692B
:108C50007469616C697A65642E0000005254433A6D
:108C600020696E697469616C697A65642E00000020
:108C700090F90400012100F01F029140400980009A
:108C800000F1E020C0F8001270470A46022100F00F
:108C90007BB84FF4827100F0F1B8006801210160E7
:108CA000704700680121416070472DE9F05F074679
:108CB0000C464FF4A07000EB84001FFA80FA38686D
:108CC0004FF48036A6409B4622F07F45C0F84863AB
:108CD0003868C0F808633868D0F8048500EB84026F
:108CE000D2F84095C2F840855146386801F028FD19
:108CF000A9EB080020F07F40012806D1102001F0E8
:108D0000C7FF5146386801F01BFD3868D0F804856C
:108D1000C0F84463A5EB080121F07F4138680129C0
:108D200000EB840010D0C0F840553868D0F8041526
:108D30006FF07F4C6A1A521E22F07F42ACEB0B039D
:108D4000934217D362B118E06D1CC0F84055102053
:108D500001F09EFF3868D0F8040540450AD10CE0C8
:108D600000EB84006D1CC0F840553868D0F804054D
:108D7000884202D00D20BDE8F09F012231463846DE
:108D800000F002F80020F6E70368C3F84413002A55
:108D900002D00068C0F80413704700002DE9F84FB6
:108DA0000E463449804601EB5001C007097801D0D6
:108DB0000F0901E001F00F074FF0000942460120C2
:108DC0004946FDF74EFBDFF8B0A004460D46052FDF
:108DD0004ED2DFE807F003161B282C00002E47D0E8
:108DE0000121404603F04CF88DF800906846FEF7EC
:108DF0000BFA5046D0E904120C431543CAE9044566
:108E000032E00EB1022114E0002112E04EB1032144
:108E1000404603F035F84046BDE8F84F012104F024
:108E20009BB8012105E0002E22D1042101E02EB1E2
:108E300003214046BDE8F84F03F022B80021404628
:108E400003F01EF80021404604F086F88DF80090EB
:108E50006846FEF7D9F95046E243D0E904341A4097
:108E600024EA0501CAE904219DF80000FEF7F0F9A3
:108E7000BDE8F88FF8360020E02B002010B5006820
:108E800042581AB101F05CFC012010BD002010BD59
:108E9000826883881A4003689A5C0A708168491C5A
:108EA00081607047C26883881A4003689954C1681A
:108EB000491CC16070470AB100F06EBC00F056BC9E
:108EC00070B50D460446B0F81414D0F81004012211
:108ED000FEF745FB00B1057004F13C0204F5826128
:108EE00004F1540072DF70BD10B50446C0B2FEF745
:108EF00061F9204610BD00000C484A8843889A4218
:108F000013D10A88A2F52063773B0ED18988C91E48
:108F10008AB28280064807491346401AC0080321D6
:108F200001EB004004A101F046BA7047E02A00209E
:108F300024DC0200BCDB020044617461206C656EBD
:108F40002069732073657420746F20307825582849
:108F50002564290010B50949094800F0BFFC08B193
:108F6000FEF72AF8F721064800F0ACFC002803D0F1
:108F7000BDE81040FEF720B810BD0000F98E0200D9
:108F8000A82F002010B50B48FFF703FE094A083A46
:108F9000D2E90434C018D2E9063244F10001C31A00
:108FA00071EB020204D24FF08072801841F100018F
:108FB00010BD0000002C002010B5C0B2FFF750FB20
:108FC0000446007801F026FF01466078012801D0B0
:108FD000012000E0002090EA010F08D00449D1E907
:108FE0000401084303D1BDE8104003F027BA10BDC7
:108FF000E02B00200146034802888A4200D000206E
:1090000070470000683500202DE9FC5F0E008346A4
:10901000DDE90C47C6F1000098469246814600D42F
:109020000846012503E000BF90FBFAF06D1C504597
:10903000FADAA84500D9454624B1002E01DB7807AD
:1090400000D5641EB80702D5B8F1000F0AD0F807A2
:1090500008D13CB1A54205D220215846641EFFF735
:10906000DDFAF6E7002E02DA4E462D2102E07807FF
:1090700003D52B215846FFF7D1FA07F00300022849
:109080000BD1B8F1000F08D13CB1A54205D2302177
:109090005846641EFFF7C2FAF6E7CDE9004743469B
:1090A00052463146584603F059FEBDE8FC9F000089
:1090B00070B50D46044600684FF4887101F0AEFDAE
:1090C0004FF49071206801F0A9FD4FF4927120686F
:1090D00001F0A4FD4FF4A271206801F09FFD4FF450
:1090E000AC71206801F09AFD20681149C0F80413A2
:1090F0002068690740F30730090E002806DA00F0FF
:109100000F0000F1E02080F8141D03E000F1E020E2
:1091100080F800142068012140F3073000F01F029E
:1091200091404009800000F1E020C0F8001170BDBE
:1091300010034200024600201268530713D502F0C4
:109140000300012802D002280CD105E0C2F38310ED
:109150000B68801C184404E00223086803EB925259
:109160001044086001207047F0B58488A518944227
:1091700000D82246A41AC288D6189A4200D81346AC
:10918000D21A4B880788BB420CD34088834209D847
:109190008888A04206D3A84204D8C888904201D348
:1091A000B04201D90020F0BD0120F0BD0A4810B541
:1091B000807860B1002401E0022C06D02046FEF742
:1091C0003BFF641C042CF7D310BD0324F6E7BDE875
:1091D0001040FEF751BF0000A42B00200348017986
:1091E000C90702D00078FFF7D7B87047A42B00203A
:1091F000F721018017214180002101714171FB217C
:1092000081711B21C17170472DE9FF410026234860
:1092100000F0CFFA2148001F074600F0CAFA204CA0
:1092200060680090A56800E000986946284004EB5B
:1092300080000C30FFF77EFF0028F5D101AA0099CD
:1092400001EA050304EB8303491CDB6842F8203084
:10925000401C00910228F2D3019800F0030001287D
:109260000BD0022810D10198032101EB90500099F6
:10927000BDF80A6001EB900005E00198BDF80A60B6
:10928000C0F3831008440090384600F08FFA08B10C
:109290000098606004B03046BDE8F081583D002081
:1092A00040390020ACB0182277496846FDF7ECF849
:1092B0007648069076494FF48070CDE90701099011
:1092C0000723744A06A96846FDF722FF08B1FDF797
:1092D00073FE4FF48041002001F0D6F808B1FDF78D
:1092E0006BFE00F035FFFDF7ADFE08B1FDF764FE43
:1092F00069490320FFF706F808B1FDF75DFE6946EE
:109300000020FEF7DDFE08B1FDF756FE01F0D2F9B0
:1093100008B1FDF751FE01F083FB08B1FDF74CFEEB
:10932000002469460120009401F01AFA08B1FDF703
:1093300043FE684601F0ACFA08B1FDF73DFE9DF82A
:10934000080056A120F00F00401C20F0F000103063
:109350008DF808000B2202A87CDF08B1FDF72CFE77
:1093600000941020ADF800003C200194ADF80200FC
:10937000ADF804404FF4C870ADF8060068467ADFD7
:1093800008B1FDF719FEFFF7E5FD4748019001A977
:10939000464800F068FB08B1FDF70EFE4448009017
:1093A00069464448FEF750FD08B1FDF705FEAC21C3
:1093B0006846FDF782F802208DF800008DF8024023
:1093C00006208DF8030001203A49ADF84C00891FB2
:1093D0008DF87C0014914020CDE922043648299074
:1093E000324869460C30FEF7EDF808B1FDF7E4FDB0
:1093F0002E4801210C30FEF7E2F81C216846FDF7EB
:109400005CF84FF4A030CDE900404FF4F02002901A
:109410002A48059003252A488DF80C500690ADF88F
:109420000E408DF810406846FEF7B2FA08B1FDF71D
:10943000C3FD02F083FD23A0FDF7C8FC26482749A1
:10944000401AC00805EB0040044625A100F0A8FF23
:10945000164803210C30FEF783F908B1FDF7ACFD87
:10946000FEF713FE642003F051FA08B1FDF7A4FDE6
:10947000204626A100F094FF00F078FE0028FBD1E2
:1094800001F02CF9F8E7000080D00200A82D0020A0
:10949000A82E002099C90200B58102004E6F7264A7
:1094A00069635F554152540021A70200BC2F002080
:1094B000D1B30200EC2A002069B402008DB402008E
:1094C000B78902000D0A55415254207374617274B9
:1094D00065642E0D0A00000024DC0200BCDB0200E3
:1094E0004465627567206C6F6767696E6720666F99
:1094F000722055415254206F766572205254542088
:10950000737461727465642E00000000537461729C
:1095100074696E672073796E6320626561636F6E34
:10952000207472616E736D697373696F6E210D0AB9
:109530000000000070B5144682880E46054620885B
:10954000111D0144921C994201D8FE2A01D90C2018
:1095500070BD521C32542088FF21401C80B22080F4
:1095600031542088401C80B220808119288803F063
:10957000F0FB2188084480B22080AA8842B1A96803
:1095800041B13044FCF780FF2088A988084420803E
:10959000002070BD072070BD2DE9F047C5881E1D55
:1095A000B6FBF5F78946B6FBF5F1044605FB176CEB
:1095B000407916686843DDF820A0F718001F87423D
:1095C00000D9C61A166001E02468491E0029FBD1A3
:1095D000A5EB0C078846B74216D818E004EB0C0040
:1095E000001D09EB0803BAF1000F3A4602D001460C
:1095F000184600E01946FCF747FF2468F61B4FF0B9
:10960000000CB844B54201D9374600E02F46002E81
:10961000E4D1BDE8F087000030B5024651B100F05A
:1096200051FF0021074C08E034F821301568AB42A7
:1096300002D11160002030BD491C8142F4D30520C5
:1096400030BD000000000000F8B50F460178144658
:109650000546012901D1687830B12088821C9A42E0
:1096600032D8012902D006E00720F8BD697801440C
:10967000891C994228D8181A801E86B2ADF800605D
:109680002188B81C084469467DDF0028EDD129787F
:10969000022904D06878BDF80020904205D3BDF8B7
:1096A0000000B04201D809200AE00820012905D1B4
:1096B0006978B14202D8ADF8001001E0ADF8006061
:1096C000BDF80010FE2901D90C20F8BD2288491CE4
:1096D000B9542188491C89B2218078542088401CC3
:1096E0002080BDF80010084420800020F8BD10B58F
:1096F00031B1B2FBF3F403FB14241CB1092010BDFB
:109700000E2010BD01600021416081608281C38113
:10971000084610BD70B50C460546FCF789FD0028CB
:1097200002D021882868084470BD10B50A8849888D
:109730008A4203D1FCF7BEFD012010BD002010BD00
:1097400070B50C460546FCF798FD002802D06188EC
:109750002868084470BD10B50A8849888A4203D138
:10976000FCF782FD012010BD002010BD01F01F0399
:1097700001229A40D243490900EB8100114600F0D2
:1097800021B84A0950F8220001F01F02012191403E
:10979000084000D00120704701F01F0301229A40C9
:1097A000490900EB8100114600F01CB8002100F0CF
:1097B0000FB8012100F016B808B56A46FCF7CFFDD6
:1097C000009808BD08B56A46FCF7AFFD009808BDD3
:1097D00008B56A46FCF7A9FD08BD08B56A46FCF75E
:1097E0008BFD08BD08B56A46FCF792FD009808BDE0
:1097F00008B56A46FCF7C0FD009808BD38B50446B8
:1098000000258DF800506846FDF7FEFC216862686F
:10981000086890420ED9401E08600178238AE268E9
:1098200001FB0325227A2168101AC0B20A7982420C
:1098300000D208719DF80000FDF70AFD284638BDEA
:1098400038B5054600208DF800000C466846FDF747
:10985000DBFCE868298A201AB0FBF1F12A6810685D
:10986000431C136001709DF80000FDF7F1FC38BD4A
:1098700010B530B1017A42680368891AC9B21A601A
:1098800006E00E2010BD03681A68541C1C6011709D
:10989000491EC9B2F7D2006800210171084610BD07
:1098A000C20800F007030120895C98400840704717
:1098B00010B5C20800F00703885C01249C402043D7
:1098C000885410BD28B1A1F11702E12A03D3072063
:1098D00070470E20704701800020704710B560B1BE
:1098E0000161F72120F8021B20F8021BFB2100F880
:1098F000021BFFF77DFC002010BD0E2010BD0000F4
:10990000F0B5858893B00C46002D39D1018800262A
:109910003F4F24293BD006DC102909D011290CD057
:10992000232958D14FE03A290BD0552953D129E0AA
:109930000146204601F0EEFD4DE0A01DFFF758FC6A
:1099400049E02246408934F8061F814200D8084683
:109950006080172800D217206080106970B160798C
:1099600060B1D7E90001CDE90301ADF80E50608880
:10997000ADF81000136903A9104698476671267167
:1099800013B0F0BD0146204601F018FE23E0011D92
:109990002C2206A8FCF778FDBDF81800BDF81C20A5
:1099A00004EBC0014A732269AAB1D7E90423CDE9C7
:1099B0000423ADF81200487B8DF81400226920467C
:1099C00004A9904707E0017A207B884200D2014633
:1099D0002846FFF717F8A07A0028D1D0E18828465A
:1099E000A5DF012580B11128CAD001F0F7F80246A1
:1099F0000848094913B0401AC00805EB0040BDE80B
:109A0000F04006A100F0D0BCA672E572B8E70000F5
:109A1000CCD00200C4DB0200BCDB020073645F62D6
:109A20006C655F67617474635F65786368616E67B6
:109A3000655F6D74755F7265717565737428292033
:109A400072657475726E65642025732E00000000C7
:109A500020B10278DE2A03D0082070470E2070471C
:109A600041800020704760B159B10278DE2A0AD0E7
:109A700009684160DE2101704FF6FF7141800020CE
:109A800070470E207047082070477FB505460029B3
:109A90004DD0002D4BD008780C46DE2847D1A88841
:109AA0006188884202D1204603F044FA28880128C0
:109AB00025D002283BD011283AD0512837D135F88B
:109AC000040F6188884232D1A978A81C02292ED1BE
:109AD000017A042903D0062901D0052927D10021C4
:109AE000009102228DF8002001914FF4C072029182
:109AF0000391ADF80420007A05280FD010E0297AF0
:109B00002046012913D1A988428891420FD1012111
:109B1000017204B0BDE8704003F00CBAADF8041057
:109B200028886946B0DF002801D0616888477FBD7A
:109B3000A88861888842FAD14FF6FF7060807FBDA7
:109B400000F180400068002800D00120704708B56F
:109B500000F18040002101600068009008BD000015
:109B600070B50B4C207808B185250FE00020A0606F
:109B700060602061E060074801F06CF8054600F085
:109B80009BFF08B901F050F801202070284670BDF5
:109B900014360020BD88020038B500258DF800502D
:109BA0006846FDF731FB074CE068401EE060E06866
:109BB00010B901F05FF8A5709DF80000FDF748FBB3
:109BC00038BD000014360020F0B50546047815486D
:109BD00089B0164640F82420124A0869121DA2F1E5
:109BE000080742F82400487F385520226846FCF7D1
:109BF0004BFC04942878385C48B10EB10A4A00E066
:109C000000226946281D01F0C7FA09B0F0BD0EB167
:109C1000064A00E00022694605F10C0001F072F9E5
:109C2000F3E70000C82B002011CC0200B5CA0200E7
:109C300030B40378054CE35C1BB130BC001D01F06F
:109C4000E1BA30BC0C3001F0C5B90000C42B0020D3
:109C500030B40378054CE35C1BB130BC001D01F04F
:109C600053BB30BC0C3001F02BBA0000C42B0020D9
:109C70000FB408B50399002904D004AA00926A46DB
:109C800000F00FF801B05DF814FB10B582680446CF
:109C9000002A05D0D4E90403216898470020A06079
:109CA00010BD2DE9FC4791460C00804676D014F893
:109CB000011B39B125290ED04046FEF7AFFC2078B4
:109CC0000028F4D198F80C00002867D04046BDE881
:109CD000FC47FFF7DABF0020012221782B291BD097
:109CE0002D2902D0302908D102E040F0010001E026
:109CF00040F00200641C002AEFD100252A290ED072
:109D00002178A1F130020A2A11D205EB850201EB7C
:109D10004205641C303DF1E740F00400EAE7D9F861
:109D200000100B1DC9F800300968641C0D4421782F
:109D300000232E290BD114F8011FA1F130020A2AA9
:109D400005D203EB830201EB4203303BF3E76C29BE
:109D50000DD068290BD0692921D00BDC252918D01A
:109D6000582931D063290ED0642915D117E014F891
:109D7000011FECE7702969D0732932D075291BD0F7
:109D8000782909D120E0D9F80000011DC9F8001098
:109D900001784046FEF742FC641C90E76CE0D9F87D
:109DA00000100A1DC9F800200968CDE900500A22F8
:109DB0004046FFF729F9EFE7D9F800100A1DC9F866
:109DC000002009680A2206E0D9F800100A1DC9F827
:109DD000002009681022CDE90050404602F0BEFF85
:109DE000DAE7D9F8001000270A1DC9F800200E682C
:109DF000C00705D112E04046761C7F1CFEF70EFC22
:109E000031780029F7D104E0202140466D1EFEF78D
:109E100005FCBD42C0D9002DF6D1BDE74EB130469C
:109E2000FCF756FB074604E0202140466D1EFEF776
:109E3000F5FBBD4206D9002DF6D103E04046761C65
:109E4000FEF7ECFB31780029F8D1A5E7D9F800003E
:109E5000011DC9F80010056830214046FEF7DEFB01
:109E600078214046FEF7DAFB08200021CDE9000109
:109E7000034610222946B0E7BDE8FC8770B541EAE9
:109E80004201DDE904564FF0A04441EA830141EA72
:109E9000052104EB800041EA0641C0F8001770BDBF
:109EA00070B541EA4201DDE904564FF0A04441EAB1
:109EB000830141EA052104EB800041EA0641C0F834
:109EC000001770BD70B541EA4201DDE904564FF05C
:109ED000A04441EA830141EA052104EB800041EA04
:109EE0000641C0F8001770BD70B541EA4201DDE9D6
:109EF00004564FF0A04441EA830141EA052104EBF6
:109F0000800041EA0641C0F8001770BD1CB5002270
:109F10000B46009211460192FFF7D4FF1CBD1CB501
:109F200000220B46009211460192FFF7DDFF1CBD97
:109F30001CB5002100910B46012201911146FFF74B
:109F4000C1FF1CBD1CB5002100910B4601220191EF
:109F50001146FFF7C9FF1CBD4FF0A04202EB800085
:109F6000D0F8002722F44032C0F80027D0F80027AC
:109F700042EA0141C0F80017704701224FF0A043A8
:109F8000824011B1C3F808257047C3F80C2570470B
:109F900018B5084B6C4601441B68009306E000BFEF
:109FA00054F82030D3F81035401C08C28142F7D84D
:109FB00018BD0000F4D00200034908B50844002190
:109FC00001600068009008BD0060004002494058F0
:109FD000012800D0002070470060004030B5154ACD
:109FE00001460020D2F8104423460AE0DB681D79C0
:109FF000854205D1401C0A28F6DB4FF0FF3030BD0A
:10A000001B68002BF2D1431CF9D0CB681871D2F831
:10A01000103443B1DB68CC681B682360D2F810248D
:10A02000D268116030BDC2F81014C96800220A60FD
:10A0300030BD0000403900207047FCF725BC704758
:10A0400008B5034A00924023024A00F005F808BD13
:10A05000D5BC0200A8370020F0B595B01C461546C7
:10A060000F4608461A9E00F0FFFA182109A8FCF7CF
:10A0700024FA0E96CDE909540023082203A9384694
:10A0800000F007FB05980690BDF81000ADF81C0025
:10A09000BDF81200ADF81E0000208DF821000398D5
:10A0A000082600F00300012802D0022818D032E070
:10A0B00003983346850AC0F3C2008DF82000039848
:10A0C0000FA9C0F38314A200384600F0E2FA09A8F1
:10A0D000009006AB22460FA9284600F021FA1AE0AC
:10A0E0000398840DC0F3C2008DF82000082C01D223
:10A0F000254600E0082533462A460FA9384600F0D9
:10A10000C8FA2E44641B09AB06AA29460FA800F022
:10A1100063F9002CEAD1384600F0ACFA15B0F0BD76
:10A120000A4A012902EBC00007D0022907D00329FF
:10A1300007D0042907D00020704702207047042070
:10A14000704700797047407970470000BCDB02001F
:10A1500010B5FFF772FF04210348FFF73FFF0249E4
:10A160000120C968487110BDACDB02002DE9F04F39
:10A170008DB0FEF76BFA18B100200DB0BDE8F08F7E
:10A180007E4C4FF0000BC4F818B4BFF34F8F6068DB
:10A190000290A568D846284004EB80000CE000BF80
:10A1A000D4F8180470B921680298814201D861601E
:10A1B000E2E7284004EB80000C3002A9FEF7BAFF6A
:10A1C0000028EDD1002005AA029901EA050304EB5D
:10A1D0008303491CDB6842F82030401C02910228AE
:10A1E000F2D3059800F00300022802D001284DD0D8
:10A1F000AAE005985022810D8946B2EB905F00D805
:10A2000050210E4666F39F50059008315C4800F0DF
:10A21000E2F9070078D000F027FA4346082205A9A2
:10A22000384600F03EFA029908F1080A2940681AF7
:10A230008000001D864222D9504D0C3530B1C2B28B
:10A2400004EB8101301A90460C3104E02946F2B249
:10A25000002590462846C6B25346384600F021FAFB
:10A260000AEB080325B132462946384600F019FAB0
:10A27000029909F1030001EB900002903BE004EB2E
:10A2800081015346324638460C31EFE70598C0F35A
:10A290008310062800D30620059960F38911C1F3C5
:10A2A0008310801C05918100354800F094F9070067
:10A2B0004AD000F0D9F94346082205A9384600F0F3
:10A2C000F0F908F1080800260FE00298434600EA7A
:10A2D0000501401C04EB81010290042238460C3138
:10A2E00000F0DFF908F10408761C0598C0F383102C
:10A2F000B042EAD847B1D4F81054D4F8180478B171
:10A30000384600F0B7F934E01EE0E86840790128EB
:10A3100004D12A682846394612689047E8680568DB
:10A32000002DF2D1384600F0A5F98DF800B068464E
:10A33000FCF76AFFD4F8180408B9029860609DF829
:10A340000000FCF785FF14E0D4F8104405E0216814
:10A35000204689688847E0680468002CF7D10948DE
:10A360000949401AC008022101EB004007A100F092
:10A3700017F8FEF76BF980F00100FEE64039002087
:10A3800058DC020024DC0200BCDB02004261636B8B
:10A39000656E647320666C75736865640000000008
:10A3A00000231A4601F084BD08B5012300926A46D5
:10A3B00001F07EFD08BD1CB5CDE9002302236A46ED
:10A3C00001F076FD1CBD3EB5069C8DE81C00032304
:10A3D0006A4601F06DFD3EBD2DE9F0470E46804610
:10A3E0001C469246082940D894F80C90002020730F
:10A3F0001946104601F01CFA0025B54206D218F89D
:10A4000005201BA12046FFF733FC03E01AA12046DC
:10A41000FFF72EFC6D1C082DEFD318A12046FFF787
:10A4200027FC0025B54212D218F805707E2F08D8F7
:10A43000FCF726F80068C05D10F03E0F01D03A46E8
:10A4400000E02E220EA12046FFF712FC03E00DA132
:10A450002046FFF70DFC6D1C082DE3D30122214699
:10A46000504601F065F984F80C90BDE8F0870000D3
:10A470002025303278000000202020007C000000E1
:10A4800025630000200000000B4810B5FF2181600B
:10A49000002101604160C0F81814C0F8141480F85D
:10A4A0002014064800F0E4F8002803D1044800F026
:10A4B00039F9002010BD00004039002058DC0200AE
:10A4C000D8D2020002480349401AC0087047000071
:10A4D00044DC0200BCDB020013B56846FFF79CF8C1
:10A4E00008B100201CBD0248009950F831001CBD85
:10A4F000BCDB020070B509480125D0F8104480F893
:10A50000205407E0E0684571216820464968884783
:10A51000E0680468002CF5D170BD000040390020CF
:10A520002DE9FF4781460C9D00200C462F7B2873A8
:10A53000984616462946184601F07AF9072E42D267
:10A54000DFE806F004090F161F2A360049462846A0
:10A55000FFF78EFB37E0494628462268FFF788FB65
:10A5600031E0D4E9002349462846FFF781FB2AE081
:10A57000A0680090D4E9002349462846FFF778FBFD
:10A5800021E0D4E90201CDE90001D4E900234946E4
:10A590002846FFF76DFB16E004F1080007C88DE8B8
:10A5A0000700D4E9002349462846FFF761FB0AE08B
:10A5B00004F108000FC88DE80F00D4E900234946D4
:10A5C0002846FFF755FB00222946404601F0B0F827
:10A5D0002F73BDE8FF872DE9F041058A80462D1FC6
:10A5E0004819C01CB0FBF5F0C6B24046FFF706F9AB
:10A5F000041E19D00020207101206071E580002721
:10A600002546761EC4F800800BE04046FFF7F6F8BA
:10A6100060B16179491C6171286005467F1CC0F8F2
:10A620000080B742F1D32046BDE8F081204600F01B
:10A6300002F80020F8E72DE9F041457901466B1E4C
:10A64000002201E00968521C9A42FBD30F680146C0
:10A65000002605E038460C68FFF7F2F82146761C24
:10A66000AE42F7D3BDE8F0810121001DFFF7A4B889
:10A67000FFF7FEB810B504460121001DFFF7B8F83A
:10A6800010F0FF0F04D12046BDE81040FFF7D3BF04
:10A6900010BD1CB501920122009201AAFEF77CFFB9
:10A6A0001CBD1CB501920022009201AAFEF774FFA6
:10A6B0001CBD0000064910B500204870091D086047
:10A6C000BFF35F8F0349044800F01AFA002010BD61
:10A6D000442C002070D102009C37002008B50020D7
:10A6E0008DF800006846FCF78FFDF1EE100A20F0AF
:10A6F0009F00E1EE100ABFF35F8F08494020C1F8C8
:10A7000080029DF80000FCF7A3FD00F0D5F908B128
:10A7100041DF08BD20BF40BF20BF08BD04E000E00E
:10A72000FCF74ABC826800219160826811618268EE
:10A7300051618268D16082685160806801607047B1
:10A7400008B5002242504058009008BD20B103498E
:10A7500009680160002070470E2070475CD302003A
:10A760002DE9FE4307460E460846FFF7EFFF002897
:10A770007CD100240094019406208DF800704FF0E5
:10A780000108ADF8040002948DF80280694620208B
:10A79000326869DF3649374A891AC908012202EB53
:10A7A000014530B100F01AFA024628463249FFF757
:10A7B000FBFD00948DF801808DF802400194029415
:10A7C0008DF8034069464020326869DF30B100F0FF
:10A7D00005FA024628462949FFF7E6FD00948DF860
:10A7E0000070F720ADF8020001940294694623201E
:10A7F000326869DF30B100F0F1F90246284620499D
:10A80000FFF7D2FD0094019402948DF80080694610
:10A810000120326869DF30B100F0E0F902462846D5
:10A820001849FFF7C1FD4FF4B06000900194029405
:10A830006946A120326869DF30B100F0CFF90246E5
:10A8400028461149FFF7B0FD0094019402948DF859
:10A8500000406946A020326869DF30B100F0BEF9DF
:10A86000024628460949FFF79FFD0020BDE8FE8308
:10A8700034DC0200BCDB0200FCD9020044DA020036
:10A8800090DA02005CD90200A8D9020008D90200BF
:10A890002DE9F0410546076860DF804619491A48EE
:10A8A0002A68081AC608BA4219D9022000EB0644E1
:10A8B00016A12046FFF774FD20463A461FA12B68DB
:10A8C000FFF779FD4FF08050D0F80C012968800225
:10A8D00000F10050421A204625A1FFF765FDB8F1AE
:10A8E00000004FF001040AD000F078F9024604EBB2
:10A8F00006402AA1FFF758FD4046BDE8F0812F48E9
:10A900000470F9E734DC0200BCDB0200496E7375A9
:10A910006666696369656E742052414D20616C6C96
:10A920006F636174656420666F722074686520537C
:10A930006F66744465766963652E00004368616ED6
:10A940006765207468652052414D2073746172748C
:10A95000206C6F636174696F6E2066726F6D20305A
:10A9600078257820746F20307825782E000000003C
:10A970004D6178696D756D2052414D2073697A651E
:10A9800020666F72206170706C69636174696F6EAC
:10A9900020697320307825782E00000073645F6290
:10A9A0006C655F656E61626C6528292072657475DF
:10A9B000726E65642025732E00000000AF2C00200D
:10A9C00030B51548ADF5017D0078002821D04FF451
:10A9D000FA7500BFADF8005280A9684661DF38B152
:10A9E000052816D00DF5017DBDE83040FCF7E4BA2E
:10A9F0006C460A497DA800F083F806E0D0E9002102
:10AA0000204690477DA800F092F87F980028E1D07A
:10AA1000F4E70DF5017D30BDAF2C002060D30200BE
:10AA20007CB5194C207808B108207CBD0120A070AD
:10AA3000002001F019F9112819D0002001F02CF99B
:10AA400012480026006801908DF800606846FCF707
:10AA5000DBFB0F4901A810DF05000AD000202070A1
:10AA60009DF80000FCF7F4FB2DB128467CBD0020CA
:10AA70007CBD0120F3E7A670667001F0CFF90120DC
:10AA800001F00AF9F3E70000AC2C0020F4D2020038
:10AA9000356F02000EB50749684600F031F805E051
:10AAA000D0E900108847684600F041F80298002875
:10AAB000F6D10EBD10D302000148007870470000A7
:10AAC000AC2C00201FB568464BDF30B1052814D0F0
:10AAD00004B0BDE81040FCF76FBA084901A800F0C7
:10AAE0000FF806E0D0E900210098904701A800F097
:10AAF0001EF803980028E6D0F4E71FBD7CD30200BF
:10AB0000016009684160AFF3008010B5D0E9002111
:10AB10005368994201D1002104E0D1E90034A342F5
:10AB200002D01946816010BD08314160F0E78168AC
:10AB300000290BD0026892680A44826041684B6821
:10AB40009A4203D108314160FFF7DFBF704770B50B
:10AB50000D460646446804E0B2682946904718B19D
:10AB6000246820680028F7D120682860256070BD1F
:10AB700040680068704741680868002801D0026892
:10AB80000A60704702460020526806E08B4203D1FB
:10AB900008681060012070471A461368002BF5D131
:10ABA000704700000C4A10B502F594730EE0991A34
:10ABB000C91001EBD171491002EBC1010C6884424C
:10ABC00001D90B4602E005D201F108029A42EED308
:10ABD000002010BD486810BD90D1020000B5FFF7FD
:10ABE000E1FF002800D1014800BD00007CD1020037
:10ABF0004058002800D00120704708B5002242507C
:10AC00004058009008BDD0F80403084000D001204F
:10AC100070474058002800D00120704708B5002236
:10AC200042504058009008BD08480068012110F0CB
:10AC3000010F06D14FF0E020C02280F80024C0F8B8
:10AC400000110349012008607047000000E100E0A6
:10AC5000180500400649024600200B790BB18520FB
:10AC600070470A6001220A7100224A717047000091
:10AC7000D02B002004490120086004480168C1F37A
:10AC800000410029FAD170470C0000401804004030
:10AC9000002802D0014980010847704741D10200D5
:10ACA0002DE9F0418846054600F02AFD234E002894
:10ACB00028461AD0FDF71EFD304490F84800800960
:10ACC000032802D001280ED007E04FF0A040D0F8B2
:10ACD0001005E84010F0010F05D003212846BDE81B
:10ACE000F041FFF739B90221F8E700F015FD00281F
:10ACF00022D02846FDF7FEFC04464FF4807000EB9E
:10AD000084000F4F81B207EB8400D0F8102542F089
:10AD10000102C0F810250846FFF74EF9B8F1000F00
:10AD20000AD02846FDF7E6FC56F82000002803D09C
:10AD30000120A040C7F80403BDE8F08128360020B8
:10AD4000006000402DE9FC41DFF8BC80044608EBC0
:10AD50000400002790F930001346C0170E46401C2F
:10AD600001D008274CE0B0781946C0F340022046D5
:10AD7000FDF79CFC0546401C41D0B078410719D432
:10AD8000C0070AD04FF0A04000EB8401D1F80007C3
:10AD900020F00200C1F8000707E000217378204688
:10ADA00000910A460191FFF77BF81749204654317C
:10ADB000FEF77EFDB078800718D51448317800EB97
:10ADC0008500D0F81025124B1A40C0F810254FF41A
:10ADD000F8524FF4403302EA042203EA01410A43E5
:10ADE000D0F810150A43C0F8102509E008EB05005B
:10ADF000327810F8481F41EA8211017000E0042700
:10AE00003846BDE8FC810000283600200060004084
:10AE1000FFE0FCFF4FF0A041D1F81015C14011F048
:10AE2000010000D00120704770B5174D95F858000B
:10AE300008B1082070BD0020411E2A18401CC0B275
:10AE400082F830102028F8D300242046FDF720FC9B
:10AE5000641CE4B20C2CF8D300240C49C0206C65AF
:10AE600081F8000401264020891FC1F800014FF439
:10AE7000BE70FFF7A1F80649F007C1F8040385F892
:10AE80005860204670BD00002836002006E000E033
:10AE900000600040034890F85800002800D00120CE
:10AEA00070470000283600200121B1EB507F01D10E
:10AEB000012070470020704738B50D4600F004FDB2
:10AEC000040014D000208DF800006846FCF79CF9BF
:10AED000207928B19DF80000FCF7BAF9112038BD9F
:10AEE0000120256020719DF80000FCF7B1F90020D9
:10AEF00038BD00000149024801F0F4BD843600204D
:10AF0000002000402DE9F0410546007916460F4625
:10AF100000EB40012C4A01EBC00102EB810494F8E4
:10AF20002A1011B10820BDE8F081284951F82010FD
:10AF30002868FFF7C1FF08B11120F4E73946284619
:10AF4000FCF7A0F966603869206030004FF0010618
:10AF50002DD03F7F4FF48E712868FFF74EFE4FF4DF
:10AF6000A2712868FFF749FE28681949C0F8041340
:10AF700028684FEA471140F30730002806DA00F04E
:10AF80000F0000F1E02080F8141D03E000F1E02044
:10AF900080F80014286840F3073000F01F0106FA1B
:10AFA00001F14009800000F1E020C0F8001128689C
:10AFB0000421C0F800150020A061E06184F8290098
:10AFC00044F8140FA675AEE784360020F8D00200CE
:10AFD000800002002DE9F05F054600794FF401760C
:10AFE00000EB400303EBC000344B03EB8004002074
:10AFF000636813B12B68C3F80863A3694FF00009B5
:10B000006BB1E06938B1606810B12868C0F80463BA
:10B010001120BDE8F09FE2610120216105E0C4F844
:10B020002490A261E160C4F81C9094F829100143B7
:10B0300002D1284600F0DFFD60680028286803D0B0
:10B04000C0F804630020E4E74FF4A2763146FFF72E
:10B05000D4FDB2464FF4927B59462868FFF7C8FDED
:10B0600006464FF484712868FFF7C2FD80465146BA
:10B070002868FFF7BDFD074648EA07003043EBD0DC
:10B0800056EA070007D12146286800F085FDA1692E
:10B09000606A8142E0D8C4F818900EB10320B8E786
:10B0A0000FB10F20B5E794F8291001200029296875
:10B0B00001D00860C6E74860C4E70000843600207D
:10B0C0002DE9F05F054600790B4600EB400101EBEE
:10B0D000C000244901EB8004284600F045F810B177
:10B0E0001120BDE8F09F62614FF00009C4F8209084
:10B0F000A36084F828904FF48E784E464146286825
:10B10000FFF77BFD28684FF0010AC0F808A0214630
:10B11000286801F017FC606808BBD5F800B06769C3
:10B120000FE000BF94F8280008B10F2615E0414653
:10B130005846FFF75DFD0028F4D02146584601F03F
:10B1400001FC206AB842F2D3574641462868FFF70F
:10B150004FFD0028F9D02868C760C4F81490304625
:10B16000BFE7000084360020007900EB400101EBCE
:10B17000C000044901EB80004069002800D0012094
:10B1800070470000843600200149024801F058BD94
:10B19000B0360020002000402DE9F041054616465B
:10B1A00000790F46154A00EBC00102EB810494F8C8
:10B1B000201011B10820BDE8F081114951F820108C
:10B1C0002868FFF779FE08B11120F4E739462846D0
:10B1D000FCF79CF86660386920601EB1397F28460C
:10B1E000FDF766FF28680821C0F800150020A0615F
:10B1F000E0616061012184F82010DCE7B0360020B6
:10B20000FCD002002DE9F05F044600790E4600EB09
:10B21000C001DFF8F0A017460AEB81053046FFF7C2
:10B2200043FEB0B168684FF000084FF4047910B1E4
:10B230002168C1F80893A8694FF0000B80B1E86954
:10B2400048B1686810B12068C0F804931120BDE8C7
:10B25000F09F1020FBE7EF614FF001082E6102E044
:10B26000EE60C5E9067B00254FF488712068FFF782
:10B27000D5FC4FF4A2712068FFF7D0FC2068C0F81D
:10B280003465C0F838752068B8F1000F12D0D0F8D6
:10B29000001241F02001C0F800122079D04600EBE6
:10B2A000C0010AEB8100406838B12068C0F80493FF
:10B2B0002846CCE701210160EFE74FF4887A4FF48C
:10B2C000A27951462068FFF7A4FC0746494620684A
:10B2D000FFF79FFC06464FF492712068FFF799FC38
:10B2E000014647EA06000843EBD0227902EBC2038D
:10B2F00008EB8302C2F818B001B10325002ED7D0A5
:10B300000F25D5E7B03600202DE9F04704460E465C
:10B310000079274900EBC00001EB80051746304655
:10B32000FFF7C2FD30B1204600F044F820B11120F3
:10B33000BDE8F0871020FBE76F61AE604FF49077B7
:10B340004FF0000839462068FFF768FC4FF4AC76F0
:10B3500031462068FFF762FC2068AA686969C0F876
:10B360004425C0F8481520684FF00109C0F808903E
:10B370006868D0B9BA4651462068FFF74AFC0746CC
:10B3800031462068FFF745FC0743F4D010B14FF079
:10B390000F0808E02068C0F80C9031462068FFF7DD
:10B3A00038FC0028F9D0002068614046C0E7000062
:10B3B000B03600200079054900EBC00001EB8000A9
:10B3C0004069002800D0012070470000B0360020FE
:10B3D0002DE9F04105460078002828D11548164986
:10B3E0000026401AC008012101EB004710E028693F
:10B3F000805DFBF7DFFE040009D0112CF7D0384642
:10B4000022460EA1FEF7D0FF2046FBF7D5FD761CA5
:10B41000A88AB042EBD8A98A2869084410F8010C20
:10B420000D2804D10A20FBF7C5FE1128FAD0BDE88B
:10B43000F081000024DC0200BCDB02004661696C84
:10B44000656420726563656976696E67204E555341
:10B45000206D6573736167652E204572726F72206F
:10B46000307825782E20000010B550B103280CD17B
:10B470000220FCF73BFF002807D0BDE81040FBF797
:10B480009BBDBDE8104000F0A9BC10BD00780028AD
:10B4900007D104483B21408876DF002801D0FBF724
:10B4A0008BBD7047E02A0020F0B58BB000260196D6
:10B4B0000D4604468988406901AAFBF76BFF0AA87C
:10B4C000CDE908600227ADF82070ADF8226021892F
:10B4D000A88808AAADDF002819D1A069002816D0D5
:10B4E0000998FCF753FD002811D0019E0EB10120F0
:10B4F0003070182102A8FAF7E0FF8DF80870039465
:10B50000A888ADF810000596A16902A888470BB07D
:10B51000F0BD000070B58D88027900EBC504227380
:10B52000C97BA41D012902D0022904D101E00088B1
:10B5300000E04088208021886088814211D9284617
:10B54000A5DF0126B0B1112816D0FFF747FB024650
:10B550000B480C49401AC00806EB00400AA1FEF750
:10B5600023FFA179E079814208D92846BDE87040DF
:10B57000FDF748BA6671F4E72671F2E770BD000086
:10B58000C4DB0200BCDB020073645F626C655F6752
:10B59000617474635F65786368616E67655F6D741D
:10B5A000755F72657175657374282920726574758D
:10B5B000726E65642025732E000000007CB506467F
:10B5C0008D88C88806EBC504A41D172800D2172053
:10B5D0002188814200D8084660800020207121889F
:10B5E0002846B5DF60B1FFF7F9FA02460F48104967
:10B5F000401AC008012101EB00400EA1FEF7D4FE65
:10B600006079002810D1306900280DD01549D1E9A2
:10B610000201CDE90001ADF802506088ADF80400E8
:10B6200032696946304690477CBD0000C4DB0200A9
:10B63000BCDB020073645F626C655F676174747386
:10B640005F65786368616E67655F6D74755F72656D
:10B65000706C7928292072657475726E6564202576
:10B66000732E0000CCD00200F0B587B00C46054622
:10B670008E1D8988406906AAFBF78CFE1821684652
:10B68000FAF71BFF0195A088069AADF8080003920F
:10B6900031882B89002704F11200994202D1738965
:10B6A000022B0DD0AA8991421ED1A96900291BD075
:10B6B0008DF8007004907089ADF81400A96911E04C
:10B6C000002A11D0FCF762FC20B106990120087015
:10B6D000022002E00698077003208DF80000A96997
:10B6E000002901D06846884707B0F0BD00680128EE
:10B6F00003D0022801D000207047012070470000CD
:10B700000449084490F93000082801DB0120704703
:10B7100000207047283600200449084490F9300082
:10B72000082801D2012070470020704728360020E9
:10B7300010B50C46017A052908D0407A38B108487E
:10B7400008A102682046FEF793FA00E01AB106A1AC
:10B750002046FEF78DFA2046BDE81040FEF795BA68
:10B76000882C0020257300000D0A00000B4910B53D
:10B77000087A0C4A0A4C02EBC003C3F81045CC68A7
:10B780004434C3F81445096902EB80024431C2F81D
:10B790001019012181400448016010BD0C340020C3
:10B7A0000411004000F0014004F501402DE9F04390
:10B7B0001C49DFF8749001208E79CD79CC7A00FA9B
:10B7C00006F8C9F80080194ACF6802EBC60C07F5E5
:10B7D000A473CCF810350C37CCF814750F6902EB54
:10B7E00086060C37C6F8107900FA05F6C9F800602D
:10B7F00002EBC507C7F81035131D03EBC403C7F8E8
:10B80000143502EB85038969C3F8101902EBC401F2
:10B81000486002EB840048EA0608C0F80088BDE8EA
:10B82000F08300000C34002008F5014000F00140D6
:10B8300038B5C3880D46044633B114A0009015A254
:10B8400016A12846FEF714FA217A05291CD0607A41
:10B8500048B1A088FEF764FC164951F8202016A1D3
:10B860002846FEF705FAA0880021FEF735FE0346BC
:10B870001049207A143951F8202001B02846BDE83B
:10B8800030400EA1FEF7F4B938BD00001B5B306DEF
:10B89000000000001B5B313B33316D0025734C6FA2
:10B8A00067732064726F7070656420282564292591
:10B8B000730D0A00882C0020257300003C25733E80
:10B8C0002025733A200000000349884201D1034833
:10B8D000704700207047000000200040D82B002057
:10B8E0002DE9F0474449454B0322C91AC908DFF83E
:10B8F000109101263F4D434C4FF0000802EB0147E9
:10B9000009F1040A052868D2DFE800F003354D711B
:10B9100050003D48C0684665D0F8540528652A6D3A
:10B9200038463AA1FEF740FD6660E6603448474677
:10B930003C38C0F80080C4F84081C4F844814FF41A
:10B940008030C4F8040340F6C411C9F8001049104F
:10B95000CAF800102A4902203839086026602F48AA
:10B9600006600820FAF7C4FE2F612879401C287170
:10B9700000F070FD3BE0D4F84001A0B1D4F804031E
:10B98000C00310D544F8046FC4F83C81D4F83C11CE
:10B99000C4F84081D4F8400100F030FE2878154802
:10B9A0006030BDE8F087FAF7DBFE20E06660C4F89F
:10B9B0004081C4F84481D9F8001001F2CF31C9F8B0
:10B9C0000010DAF8001001F2CF31CAF8001026603A
:10B9D000286900F57A70286109E011A240F283110C
:10B9E0001A48FAF717FC384619A1FEF7D9FC0148A6
:10B9F0006830D6E70C2B0020BCDB0200BCDB020069
:10BA000040850040008000400C3400207374617257
:10BA1000745F74696D653D25640A0000FC1F004079
:10BA20002E2E5C2E2E5C2E2E5C2E2E5C2E2E5C631B
:10BA30006F6D6D6F6E5C74696D655F73796E632099
:10BA40002D206E6F726D616C2E630000785634127B
:10BA50006170705F6572726F725F68616E646C6551
:10BA6000720A000070B50546FDF713F9134C40B19A
:10BA7000D4E904024FF08071411842F10000C4E99A
:10BA8000041000212846FDF755F830B1606820B158
:10BA9000606800F04FFC0020606001212846FDF73F
:10BAA00049F818B1FDF76EFAC4E90601284600F01E
:10BAB0006DFC2846BDE8704000F034B8F82B00203B
:10BAC00070B5054600200C460870FDF75BFAD5E915
:10BAD0000223101A63EB010300263146361A9941FE
