:020000022000DC
:1060000000000120756302005D6302005F6302000F
:106010006163020063630200656302000000000028
:1060200000000000000000000000000067630200A4
:1060300069630200000000006B6302006D630200F0
:10604000718802000DA60200B58C02006F63020089
:106050006F6302006F630200318B02006F63020006
:106060006F6302006F6302006F6302006F630200E0
:106070006F6302006F6302006F6302006F630200D0
:106080006F6302003D7902006F6302006F630200DC
:106090006F6302006F630200CDC402009DA4020082
:1060A0006F6302006F6302006F6302006F630200A0
:1060B0006F6302006F630200000000000000000038
:1060C0006F6302006F6302006F6302006F63020080
:1060D0006F6302006F6302006F6302000000000044
:1060E00000000000000000000000000000000000B0
:1060F00000000000000000000000000000000000A0
:10610000000000000000000000000000000000008F
:10611000000000000000000000000000000000007F
:10612000000000000000000000000000000000006F
:10613000000000000000000000000000000000005F
:10614000000000000000000000000000000000004F
:10615000000000000000000000000000000000003F
:10616000000000000000000000000000000000002F
:10617000000000000000000000000000000000001F
:10618000000000000000000000000000000000000F
:1061900000000000000000000000000000000000FF
:1061A00000000000000000000000000000000000EF
:1061B00000000000000000000000000000000000DF
:1061C00000000000000000000000000000000000CF
:1061D00000000000000000000000000000000000BF
:1061E00000000000000000000000000000000000AF
:1061F000000000000000000000000000000000009F
:10620000354936480A1A02D0072291438D4634494F
:1062100034480A1A06D00722914381F309880222E2
:1062200082F3148830483149314A00F044F831484B
:106230003149324A00F03FF831483249324A00F0E1
:106240003AF832483249334A00F035F83248334997
:10625000334A00F030F833483349344A00F02BF821
:1062600033483449344A00F026F83448344900228F
:1062700000F02CF833483449002200F027F8334866
:106280003349091A082902DB002202604160314AC1
:1062900090471F481F49884205D00268043003B464
:1062A000904703BCF7E700208646EC46002000211B
:1062B000294A9047FEE7884207D0521A05D0037852
:1062C00001300B700131013AF9D17047884202D098
:1062D00002700130FAE770470000012000E0002062
:1062E000000001200000012054E50200D82A00200F
:1062F0007C2B0020D0630200D0630200ACD20200ED
:1063000054E50200D82A0020D82A0020D4D3020065
:10631000D4D30200D4D30200D4D30200D4D30200D9
:10632000D4D30200D4D30200D4D3020054E5020037
:10633000F8E502007C2B00207C2B00207C2B002029
:10634000C43F0020C43F0020C43F0020C43F0020C1
:10635000C45F00209D6302005D9F0200FEE7FEE730
:10636000FEE7FEE7FEE7FEE7FEE7FEE7FEE7FEE705
:1063700000F002B8FFF7FCBF0F484FF00701884359
:1063800085460E4880470E48016841F4700101605F
:10639000BFF34F8FBFF36F8FFFF732BF09480A4932
:1063A0000A4A884207D0521A05D0037801300B7090
:1063B0000131013AF9D170470000012091820200B9
:1063C00088ED00E0D4D30200D82A0020D82A00208B
:1063D0007047000007B5044B0093044A402300F0C7
:1063E00032F803B05DF804FBF16302007D2B00205E
:1063F0002DE9F84389461446B2B10F4B0F4E0325E1
:10640000002743F00108224609EB0701002004F0B1
:1064100043FD0744241A48B933782BB14FF47A402E
:10642000C047013D02D13570BDE8F88301233370C8
:10643000002CE8D1F8E700BFE0D302007C2B00205D
:10644000704704F05DBDF0B595B01C461646084691
:106450000D4601F008FE1A9B0D93CDE90864002457
:106460002346082205A928460A948DF82C400C944E
:1064700001F016FE079B0293069B03939DF81430D0
:106480008DF8114003F00302012A1DD1BDF814401C
:10649000059EC3F3C203C4F383148DF81030A20029
:1064A00008230EA9284601F0FBFDC6F3952608AB8C
:1064B0000093224602AB0EA9304600F069FB284645
:1064C00001F0D5FD15B0F0BD022AF8D1BDF8164097
:1064D000C3F3C203A4098DF810300827082C264600
:1064E00028BF08263B4632460EA9284601F0D8FDB3
:1064F000A41B08AB02AA31460EA8374400F0ACFB3F
:10650000002CEBD1DBE7000008B5FFF79AFF042170
:10651000034800F0ABFA034B01225A7108BD00BFDB
:10652000C4D30200D82A0020037813F0040216D046
:1065300003F00303012B03D0022B09D00120704785
:106540000A6800880232C0F3831002440A60F5E74B
:106550000B684288023303EB92130B60EEE71046A0
:10656000704700002DE9F04F87B000230446851CDA
:106570000DF107000F4690468DF8073001F072F8D4
:10658000454806683E60D0E90132134401339B1B45
:10659000824600F21C4600F5836900F21447AB42C4
:1065A0001BD30022B8F1000F70D0052363F307025C
:1065B00064F38912DAF80010DAF808309DF8070061
:1065C0000B4003330D444AF82320CAF8005001F071
:1065D0006DF8012007B0BDE8F08F0121304601F0D1
:1065E00086FA484601F099FA384601F096FADAF848
:1065F0000400DAF808B0029000EA0B0003300AEB5E
:10660000800002A9FFF790FF029B50BB0BEA030238
:106610000AEB820203F1020CD2680392013303EA0F
:106620000B0B0AEB8B0B02F00302012ACDF808C01A
:10663000DBF80C1022D0022A16D08346384601F02F
:106640006FFA10B1029BCAF804305946304601F087
:106650004EFADAE901231344DAF8002001339B1AD9
:106660009DE70BEA0300C9E7BDF80E309B09033331
:106670004FEA114B0CEB93030293DFE7BDF80C30AC
:10668000C3F383134FEA114B6344F5E7062363F327
:10669000070264F39F528DE7902C00200B4B0C48AF
:1066A000FF2210B59A600022C3F81824C3E9002223
:1066B000C3F8142483F8202401F08EFC044610B99A
:1066C000044801F035FD204610BD00BF902C00208D
:1066D00014D3020004D4020030B50A4C71B10A4A46
:1066E0000A49121BD20800239A4201D1002030BD72
:1066F00031F82350854202D00133F5E7034654F8C0
:106700003300F4E73CD30200C4D30200D82A0020AF
:10671000094B013903EBC000032909D8DFE801F078
:106720000A020406042070470079704740797047D8
:1067300000207047022070473CD30200034BD3E98E
:106740000030C31A58425841704700BF902C0020B7
:106750002DE9F04387B0FFF7F1FF0646002840F02F
:10676000FB807E4DC5F81804BFF34F8F6868AC6896
:1067700002902040033005EB800002A9FFF7D4FE11
:10678000029B18B1D5F81824002A5FD004EA03024E
:10679000991C013305EB8202234005EB8303D26889
:1067A000DB68049302F00303022B0392029162D18F
:1067B000BDF80E306A484FEA9318B8F1500FC14641
:1067C00028BF4FF0500969F38F1309F10801ADF8A4
:1067D0000E3001F019FC0746002800F0A88001F0F7
:1067E00042FC03A900230822384601F04FFC02991D
:1067F00024EA01060136B600B14535D95FFA89F9B8
:106800007EB3F6B2A9EB0609214003315FFA89F4A1
:10681000B146544E05EB810108234A46384601F043
:1068200035FC36B109F1080322463146384601F0FD
:106830002DFC029B08F1030803EB98030293D5F8A3
:106840001834002B4BD1D5F810445BE02A689A42EB
:1068500004D86A60304607B0BDE8F08304EA03005C
:1068600088E740493446D7E72140033108234A46A8
:1068700005EB8101DAE7012B59D1BDF80C3038481E
:10688000C3F38311062928BF062161F3891302315E
:106890008900ADF80C3001F0B7FB0746002846D060
:1068A00001F0E1FB0023082203A9384601F0EEFBCA
:1068B0000026BDF80C20C2F38312B300964203F108
:1068C0000803BCD202994A1C21400331029205EB15
:1068D00081010422384601F0D9FB0136E9E7384648
:1068E00001F0C5FBFFF72AFF80F00100C6B2B1E757
:1068F000E3685B7923B1236839461B6820469847D3
:10690000E3681C68002CF3D1384601F0B0FB0DF1B0
:1069100007008DF8074000F0A5FED5F818340BB934
:10692000029B6B609DF8070000F0C0FEDAE7D5F827
:10693000104454B90C4B0D480D49C01AC00800044E
:1069400040F0020000F06EF8CCE7236820469B6818
:106950009847E3681C68ECE700267BE7902C002052
:1069600014D302009C2C00203CD3020064D302000C
:1069700010D402002DE9F74F284C80460F4692466E
:1069800001A9012218469B46D4F80890FFF7EAFDBA
:1069900080B3019D0026A91C5E4506EB010233D1A0
:1069A00000211F4801F078F880F310006A1C02EA09
:1069B000090204EB8202000405EA0903033340EAFA
:1069C0001840D06014F8232068F3C50204F823208F
:1069D00034F8232066F3891224F8232054F8232066
:1069E00067F39F2244F8232002F0F80242F00102EC
:1069F00004F8232094F820341BB1FFF7A9FE0028E7
:106A0000FBD103B0BDE8F08F09EA020204EB820279
:106A10005AF82630D3600136BEE700BF902C002024
:106A2000AC30002000231A46FFF7A4BF07B50123AE
:106A3000019201AAFFF79EFF03B05DF804FB07B5C2
:106A4000CDE9002302236A46FFF794FF03B05DF807
:106A500004FB1FB5CDE90123069B039301AA032381
:106A6000FFF788FF05B05DF804FB000030B50F4963
:106A7000D1F81024002314463CB9C468237152B9DC
:106A8000C1F810042260184630BDE46825799D42A3
:106A900006D02468F0E7D268116821601060F2E740
:106AA00001330A2BE7D14FF0FF33ECE7902C0020A5
:106AB000094A38B50123D2F8104482F820341D4623
:106AC00004B938BDE3685D71236820465B68984768
:106AD000E3681C68F4E700BF902C0020037A052BC4
:106AE00010B50C460FD0437A23B1084A0849204616
:106AF00001F079F80749204601F075F82046BDE815
:106B0000104001F065B8002AF8D0F3E75BD402002A
:106B100060D402006ADB0200C38873B504460D46E8
:106B200033B1144A00921449144A284601F05BF824
:106B3000217A05291CD0637A4BB1A088FFF7E8FDC4
:106B40000F4B104953F82020284601F04CF8227AC8
:106B50000D4BA08853F822600021FFF7BDFD0B49C3
:106B600003463246284602B0BDE8704001F03BB80B
:106B700002B070BD5BD402006BD4020063D402008B
:106B800028D4020060D4020090D4020083D4020012
:106B90002DE9F04385B01F460C9D002306460C46A8
:106BA000904695F80C902B7329463846FFF7B4FFB2
:106BB000B8F1060F09D8DFE808F00412181F2833CF
:106BC00040003146284601F00EF80022294638469A
:106BD000FFF784FF85F80C9005B0BDE8F0832268CC
:106BE0003146284600F0FFFFEFE7D4E900233146A5
:106BF000284600F0F8FFE8E7A36800933146D4E99F
:106C00000023284600F0EFFFDFE7E3680193A36865
:106C100000933146D4E90023284600F0E4FFD4E78E
:106C200023690293E3680193A36800933146D4E992
:106C30000023284600F0D7FFC7E763690393236961
:106C40000293E3680193A36800933146D4E90023DB
:106C5000284600F0C8FFB8E708292DE9F84F80461C
:106C60000E4617461C463AD8002593F80C901D7323
:106C700019461046FFF750FFDFF884A0DFF884B014
:106C8000AE422ED918F805205946204600F0ABFF39
:106C90000135082DF4D11849DFF86CB0204600F01A
:106CA000A2FF4FF0000A564520D918F80A507E2D51
:106CB00003D8284605F070FE00B92E252A4659460D
:106CC000204600F090FF0AF1010ABAF1080FEAD15C
:106CD000012221463846FFF701FF84F80C90BDE8F9
:106CE000F88F5146204600F07EFFD1E70349204649
:106CF00000F079FFE7E700BF56D4020054D4020049
:106D000052D402004CD4020058D40200C30710B57C
:106D100007D4F0234008054A145C2340194311545A
:106D200010BD0901C9B20F23F4E700BF8031002074
:106D300030B5094B1C78094B196800239C4202DCD2
:106D40000022104630BD11F83350854201EBC302DA
:106D5000F7D00133F2E700BF4C3100209031002022
:106D600070B504460D46FFF7E3FF30B1436823B129
:106D700029462046BDE87040184770BD034B0448C3
:106D800019680022490800F070BA00BF5031002095
:106D90005831002010B5C0B2FFF7CAFF0446007892
:106DA00001F0BCFE63785A1E53425341834208D11E
:106DB000044BD3E90023134303D1BDE81040FFF790
:106DC000DDBF10BD7831002037B54308364AD35CAB
:106DD000C2074CBF1B0903F00F0304460D46042BEA
:106DE00036D8DFE803F003262D393D0081B30121B9
:106DF000FFF78CFF00230DF107008DF8073000F03E
:106E000031FC0122A4F12003C4F12000274902FA39
:106E100003F322FA00F0034302FA04F4D1E900205C
:106E200014430343C1E900439DF8070000F03EFC12
:106E30000EE0002918BF02212046FFF767FF07E098
:106E400041B10321FFF762FF01212046FFF788FFD0
:106E500003B030BD0121EFE70029F9D10421EBE7B0
:106E600009B10321E8E7FFF751FF29462046FFF764
:106E700077FF0DF107008DF8075000F0F3FB0122BA
:106E8000A4F12003C4F12000084902FA03F322FA16
:106E900000F0034302FA04F4D1E9002022EA0404DA
:106EA00020EA0303BEE700BF8031002078310020D4
:106EB0002DE9F041124E134F00243378A34208DC31
:106EC000114BD3E90023134318D0BDE8F041FFF77D
:106ED00055BF3D6805EBC40815F8340001F01EFEEF
:106EE00098F801104B1E594259410A1A514215F89F
:106EF00034005141FFF768FF0134DEE7BDE8F0815F
:106F00004C3100209031002078310020092AF7B55B
:106F100005460C4616463DD901F03EFDD8B11E4B44
:106F20001E481D601E4B1F4F1C701F4B002110225E
:106F30001E6005F091FD1D4B00200021C3E90001FA
:106F4000013CE4B20326FF2C0BD1194A1948002159
:106F500000F080F903E001F0E7FC0028DFD003B087
:106F6000F0BD20B29DF806308DF8046005EBC0023C
:106F700023F007038DF8063001A9937815F8300047
:106F80008DF805303A4601F011FD013CE4B20028CD
:106F9000D9D0E4E70720E2E79031002080310020DB
:106FA0004C310020956D02005031002078310020D6
:106FB000B16E0200F0D4020070B5084D084E0024F6
:106FC0002B789C4201D3002070BD3368012113F857
:106FD000340001F05FFD0134F2E700BF4C310020C6
:106FE000903100201FB50021039001AA44F2010056
:106FF000CDE9011100F010F805B05DF804FB00B513
:1070000083B002900091019244F2010071466A46F9
:1070100000F002F803B000BD10B572B6FFF748FDEE
:10702000FFF796FB0028FBD1104B114C1149E41AD5
:10703000E408240444F00100FFF7F4FC0E4B1B6845
:10704000DB0700D500BE0D4944F00200FFF7EAFC63
:10705000BFF34F8F0A490B4BCA6802F4E062134337
:10706000CB60BFF34F8F00BFFDE700BF3CD30200F2
:1070700064D30200FFD40200F0ED00E00BD5020063
:1070800000ED00E00400FA0549B152B1531E1A4068
:1070900007D1826001608380C260104670470E2075
:1070A00070470920704710B58468C2688388121B36
:1070B000934208D3C26813400268D154C3680133B5
:1070C000C360002010BD0420FCE78268C3689A42B8
:1070D0000AD08268838813400268D35C0B7083688F
:1070E000013383600020704705207047D0E90223F8
:1070F000D1E90201994208BF90422CBF0120002033
:10710000704700002DE900480C4800F002FC0C4BD1
:10711000D3E9002312EB000B43F1000C094BD3E938
:1071200000239C4508BF93455846614603D21BF196
:1071300080704CF10001BDE8008800BFE02A00200B
:10714000983100201032002037B505460C460A4819
:1071500001A900F010FC60B10570446001A9064867
:1071600000F033FC18B1054800F0D8FB002003B054
:1071700030BD0420FBE700BFFC310020E02A0020E6
:10718000194B1B782DE9304804461BB900252846C9
:10719000BDE830880028F9D0037F03F0FF05002BFD
:1071A000F4D0FFF7AFFFD4E90223994208BF904221
:1071B00015D3236903B92377D4E9053098472169AA
:1071C0000029E3D0237F03F0FF05002BDED0D4E9B4
:1071D000022312EB010B43F1000CC4E902BC21466F
:1071E000024800F0C4FFD2E7A03100201CD5020005
:1071F00013B5114B11491868019008235822104803
:1072000000F0A6FB044698B90E4A0F4801A900F009
:1072100071FA044660B901210B4800F05DFB0123BF
:107220000A4A0948194600F0C3FA094B01221A70AC
:10723000204602B010BD00BF18D50200A4310020C6
:10724000FC310020B5720200E02A0020FFFF7F0021
:10725000A03100203AB103685A614A1E514251419F
:107260001961002070470720704738B5037F044636
:107270000D4683B98261FFF745FF421941F10003D2
:10728000C4E90223236903B1256121460020BDE83A
:107290003840FFF759BF002038BD0023014603776F
:1072A0000120FFF751BF0000014800F032BB00BFD2
:1072B000E02A00202DE9F04F85B0074600F014FBCE
:1072C00040B1594AD2E9003113F1807341F1000114
:1072D000C2E900310021384600F015FB38B1534CAB
:1072E000236823B12068FFF74BFF002323600121AF
:1072F000384600F008FB20B1FFF704FF4C4BC3E910
:10730000000103A94B48494D4B4C4C4E00F06DFB1E
:10731000002845D1DFF820A1444CDFF828B15046C1
:1073200000F03BFF2368002875D07BB12368D0E9CB
:107330000201D3E90223994208BF90422DD223686B
:107340001B7F1BB12168504600F011FF504600F032
:107350001EFFD0E9026305460193FFF7D3FE019BB0
:10736000B6EB000863EB0109B8F1010F79F10003F6
:1073700044DB334EB0453FD9FFF796FF82194FF4F7
:1073800096030021584600F033FA00283ED12368C6
:1073900013B9384600F004FA256005B0BDE8F08F57
:1073A0000378012B1DD05BB1022B11D14FF0000AE5
:1073B000204600F0ECFE002833D080F81CA0F7E750
:1073C00041680B7F23B901230B77204600F0CFFEE5
:1073D00003A9184800F034FB03A9164800F005FB88
:1073E00096E741682B68994202D100232B60EFE7B2
:1073F000204600F0D5FEEBE7AA68C0E7002158461A
:1074000000F077FA2846FFF7BBFE01E00D28F9D01F
:107410000023236083E7002BBFD1384600F0C4F976
:10742000BBE701233370D3E79831002018320020E6
:1074300010320020FC3100201CD50200A0310020B9
:10744000FFFFB400E02A00200648074A03780749F6
:10745000D35C012213B1043002F08CB80C3001F07F
:107460004FBE00BFE82A00208C32002044320020AA
:107470000648074A03780749D35C012213B1043058
:1074800002F024B80C3001F0E5BD00BFE82A00206E
:107490008C3200204532002037B50578012D05D00B
:1074A000002D32D0022D25D003B030BD037A13B9A0
:1074B000FFF7CAFFF8E743681A4C19782046FFF730
:1074C000F2FD80B18DF800500190174B68461B68A3
:1074D0009847A168E368A2885B1A9A42E8D2134BE6
:1074E00001221A70E0E7A268E3689A42F1D08DF8B1
:1074F0000000EAE7C3688DF800500193FFF7A4FF8E
:10750000094B68461B689847CEE709490948FFF7C9
:10751000DCFD10B9FFF7ACFFC6E703238DF80030A0
:10752000EEE700BF203200201C3200203032002065
:107530004532002034320020F0B51F46234B89B07D
:1075400006461A600C4600293DD08A882048096802
:10755000FFF79AFD002834D1A289A1681D48FFF7E2
:1075600093FD00282DD11C4D0FCD6C460FC495E81E
:107570000F0084E80F0073690693337C174A18489C
:107580008DF81C70003318BF01238DF81430737C04
:10759000002B14BF0E2300238DF81530F3680293DF
:1075A000B36803933368019369467368009301F0ED
:1075B000F9F830B90B4B18703368013301D0FFF77D
:1075C00043FF09B0F0BD0720FBE700BF1C320020DD
:1075D000203200203432002034D502009974020099
:1075E000E82A00203032002070B5084C01460848D7
:1075F0002678FFF76AFD054636B100232370FFF7B2
:1076000023FF08B1FFF7EEFC284670BD30320020A2
:107610002032002010B501460E48FFF744FD044615
:10762000A8B90D480D4A0378D35C63B1043001F06A
:1076300095FF60B90A490748FFF747FD38B9BDE82B
:107640001040FFF715BF0C3001F04EFDF1E720466A
:1076500010BD00BF34320020E82A00208C32002008
:107660004532002070B5EFF3108672B60C4A94686C
:1076700001239CB993600B4B0B4DD3F8801029402C
:107680001160C3F88050D3F8841051604FF0FF327E
:10769000C3F88420047006B962B670BD0370FAE7BF
:1076A0004832002000E100E0FC06FFBD084B9A686C
:1076B00010B55AB150B9EFF3108172B6054A1C6883
:1076C00014605C685460986001B962B610BD00BF78
:1076D0004832002000E100E0435882B03BB1002373
:1076E000435043580193019B012002B07047184654
:1076F000FBE70000F8B5224B4679224D43F82620DF
:10770000214A224BF7009B1AEA19DB0812791B0465
:1077100032B143F002001E49FFF784F90820F8BD9A
:1077200002680C88C2F8084590F904208978002A7C
:10773000A8BF02F1604CD4B2BABF04F00F0EDFF85C
:1077400058C00CF5614C4FEA4111C9B2B4BF0CF8F6
:107750000E108CF8001352090121DFF840C004F02C
:107760001F042F4401FA04F44CF82240397145F803
:107770003600084943F00300FFF754F90020CEE734
:107780005C320020543200203CD3020074D302004B
:1077900066D5020088D5020014ED00E000E100E0AB
:1077A000036801221A607047036801225A6070471B
:1077B00073B501F15005AD000068ADB24FF48034EF
:1077C0008C400026C0F80843C0F84843465101F5F4
:1077D000A8714559019522F07F42019D40F8212072
:1077E000C0F844430BB1C0F8044302B070BD0000C0
:1077F0002DE9F74F884699464FF48036036808F123
:1078000050058E404FEA880AAD00C3F84863ADB218
:10781000C3F80863074603EB0A00D3F804154FF0DA
:10782000000B22F07F44D0F84025C0F8401543F803
:1078300005B05B590093009B531A23F07F43012B43
:107840000BD1244B4FF4806043F0010398473B6811
:1078500043F805B05B590193019B3868D0F8045593
:10786000C0F84463631B23F07F43012B1AD108F552
:10787000A878184B013440F8284043F001034FF436
:10788000806098473B68D3F804359D4208D13B6837
:107890000020C3F84463C3F8046303B0BDE8F08F6D
:1078A0000D20FAE78244C9F1FF19CAF84045D0F823
:1078B0000435E21A013A22F07F4209F57F499145E9
:1078C000EED3002AE3D10134CAF84045D0F80425AC
:1078D0009342DBE760D5020003680222C3F8442329
:1078E00009B1C3F8042370474FF482710068FFF7B1
:1078F000F3BE4FF4803303FA01F10368C3F8481371
:10790000C3F8081370475031890089B20068FFF747
:10791000E3BE0368D3F804057047000090F9043013
:1079200001215A0903F01F0301FA03F3403202490F
:1079300041F82230704700BF00E100E0024B034AEB
:107940001B681068184700BF5C32002054320020CA
:1079500010B561B1B2FBF3F403FB1424A4B244B933
:10796000C0E9001484608281C381204610BD0E20CE
:10797000FCE70920FAE737B550E8013F9DB2C4891A
:1079800025448489A54228BF2D1B0489A54202BF36
:10799000BFF32F8F002207E0C5EA030540E801543A
:1079A000002CE9D14FF001028DF803200193019BD7
:1079B0009DF803200B6002F0FF0322B10B880068E2
:1079C000184403B030BD1846FBE70A884B889A423A
:1079D00009D150E8012FC2EA024240E80123002BFE
:1079E000F7D1012070470020704737B550E8023FBB
:1079F0001FFAA3F5C488A54202BFBFF32F8F002250
:107A00000DE0C48925448489A54228BF2D1BC3EA03
:107A1000054540E80254002CE8D14FF001028DF8F2
:107A200003200193019B9DF803200B6002F0FF03EC
:107A300022B14B880068184403B030BD1846FBE7FC
:107A40000A884B889A4209D150E8022FC2EA2242A2
:107A500040E80223002BF7D1012070470020704737
:107A600001F01F024B090121914000EB830000F05F
:107A70001DB801F01F0301229A404B0900EB83005F
:107A8000D14300F029B84B0901F01F0150F8230041
:107A9000C84000F00100704750E8002F0B4640E856
:107AA000003C9CF0000FF7D11046704750E8003FB3
:107AB00043EA010240E8002C9CF0000FF6D110468A
:107AC000704750E8002F02EA010340E8003C9CF0B8
:107AD000000FF6D11046704750E8003F03EA01025C
:107AE00040E8002C9CF0000FF6D11046704750E89B
:107AF000003F03EB010240E8002C9CF0000FF6D1A0
:107B00001046704750E8003FA3EB010240E8002C0C
:107B10009CF0000FF6D1104670470121FFF7C6BF59
:107B20000021FFF7CEBF10B590B1D0E90123016865
:107B30009B1ADBB20A60013BDBB2FF2B026802D169
:107B40000020107110BD11684C1C14600B70F2E71E
:107B50000E20F7E737B5054600240DF107008DF834
:107B60000740FFF77FFD2A686B68116899420ED9BC
:107B7000481E106011F8014CEB68298A01FB04349F
:107B8000AB6811791B1ADBB2994238BF13719DF8AB
:107B90000700FFF78BFD204603B030BD37B5054623
:107BA00000230DF107000C468DF80730FFF75AFD52
:107BB0002A681368591C1160E968641A298AB4FBA1
:107BC000F1F41C709DF80700FFF770FD03B030BDA5
:107BD000826810B504462AB1436901680069984774
:107BE0000023A36010BD0EB403B5039921B104AB0B
:107BF00001AA019300F074F802B05DF804EB03B041
:107C000070470A2938B504460D4602D10D21FFF709
:107C1000F8FFA3682268591CA160D554D4E9013249
:107C20009A4204D32046BDE83840FFF7D1BF38BDA3
:107C30002DE9F84F9946DDE90A4317468246884602
:107C40000A460126BA420FD24E4538BF4E4613F0BF
:107C5000010B01D164B900240125B9F1010F1AD932
:107C600009F1FF397D43F8E7B2FBF7F20136E9E7A6
:107C70009B070ED5B9F1000F0CBF30252025A64279
:107C8000EAD2013C29465046FFF7BBFF002CF6D153
:107C9000E1E72025F3E7B8FBF5F39F42E2D9DFF8EF
:107CA0003C90B8FBF5F3504619F8031005FB138818
:107CB000FFF7A7FFB5FBF7F3BD4207D2BBF1000FFB
:107CC00002D00CB1A64203D3BDE8F88F1D46E8E709
:107CD00020215046013CFFF794FFF2E79AD50200BD
:107CE0002DE9F74F054617468846002900F03081F8
:107CF00018F8011B49B92B7B002B00F0298128467D
:107D000003B0BDE8F04FFFF763BF252940F0C08006
:107D1000002698F800302D2B424608F1010823D0A8
:107D2000302B24D02B2B25D000242A2B02F101014B
:107D300023D13B681A1D1B683A601C440A4613781D
:107D40002E2B26D101324FF00009104610F8011BEE
:107D5000A1F1300CBCF1090F1DD80A2303FB091354
:107D6000A3F130090246F0E746F00106D1E746F0FC
:107D70000206CEE746F00406CBE711F8013CA3F17A
:107D800030000928DBD80A2202FB0434303C0A46C2
:107D9000CBE74FF0000912F8011B01F0FB00682847
:107DA0009046F8D069290ED04AD8582964D006D810
:107DB00025296DD098F80030002B99D19BE76329D5
:107DC00062D06429F6D13A68D2F800A0111D8AEA7F
:107DD000EA723960A2EBEA724FF0010B092A5BDC10
:107DE000CB4538BFCB462CB1BAF1000F01DB72078F
:107DF00000D5013CB30702D5B9F1000F04D0F0075C
:107E000002D4002C4ED10024BAF1000F52DACAF18C
:107E1000000A2D212846FFF7F4FE06F00302022A8D
:107E200005D1B9F1000F02D1002C47D10024CDE9D2
:107E300000464B460A2251462846FFF7F9FEB9E7AD
:107E400073294CD014D87029B4D13B681A1D3A60FC
:107E5000302128461C68FFF7D4FE78212846FFF71A
:107E6000D0FE00220823CDE9003221461022E3E7AC
:107E700075292BD078299DD139680A1D3A60CDE942
:107E800000464B46102228E03B681A1D19783A60DC
:107E90002846FFF7B6FE8DE70A230BF1010BB2FB74
:107EA000F3F29BE7A345AFD220212846013CFFF720
:107EB000A8FEA6E77107B0D52B21ABE7A345B6D244
:107EC00030212846013CFFF79CFEADE73968CDE93B
:107ED00000460A1D3A604B460A220968ACE73B6837
:107EE0001A1D3A6016F00106D3F800A020D1BAF1AD
:107EF000000F03D0504604F004FE0646B44200D9F9
:107F0000C4B90AF1FF3A1EE028460136FFF779FEB0
:107F10001AF806100029F7D1A642BFF44BAF002C87
:107F20003FF448AF20212846013CFFF76AFEF3E703
:107F30000026EDE720212846013CFFF762FEDDE741
:107F40002846FFF75EFE1AF8011F0029F8D131E735
:107F500003B0BDE8F08F2DE9F047B0F80690447902
:107F6000D2F800A09DF8208009FB04F4043C0646EA
:107F70000AEB0300A0420F4688BFA4EB030A191DB9
:107F8000C2F800A0B1FBF9F509FB15114DB9A9EB39
:107F90000104544528BF5446BAF1000F04D1BDE88E
:107FA000F0873668013DF1E704317B1970182246ED
:107FB000B8F1000F0ED001461846AAEB040A04F0EF
:107FC00022FDD145254436684C464FF0000128BFBC
:107FD0005446E1E71946F0E7FFF7A5BDF8B5467945
:107FE0000146721E0546002393422D6803D30024E8
:107FF000A64202D8F8BD0133F6E70F682846FFF71E
:10800000CDFD01343946F3E72DE9F843068ACD1C4E
:108010000746FFF79FFD043E35440446B5FBF6F5E1
:10802000F0B14FF48073EDB28380C680013D0760EC
:1080300081464FF00008A84512D23846FFF78AFD66
:10804000064648B163790133637108F10108C9F844
:10805000000007608146EEE72046FFF7BFFF344689
:108060002046BDE8F88301210430FFF740BD10B57C
:10807000012104460430FFF745FD10F0FF0F04D145
:108080002046BDE81040FFF7A9BF10BD1FB5039201
:108090000022009203AAFFF75EFF05B05DF804FB23
:1080A0001FB503920122009203AAFFF754FF05B007
:1080B0005DF804FB41DF7047064B10B500241C70CF
:1080C000054B1C60BFF35F8F0449054800F039F889
:1080D000204610BD683200206C320020ACD5020072
:1080E0006032002007B500230DF107008DF807303E
:1080F000FFF7B8FAF1EE103A23F09F03E1EE103AE1
:10810000BFF35F8F094B4022C3F884219DF807001D
:10811000FFF7CCFA04F0C0F920B1FFF7CBFF03B0B2
:108120005DF804FB20BF40BF20BFF8E700E100E09E
:10813000836800225A609A60C3E90422DA601A60F8
:1081400070470B684A684360934208BF0023016090
:1081500008BF43607047436843B102689168526842
:108160000B449342436004BF00234360704770B5E3
:10817000446806460D46206818B1B36829469847FA
:1081800018B923682B60256070BD2468F3E7436845
:10819000186808B102681A60704743681868704729
:1081A0004368186800B97047884203D102681A60B2
:1081B0000120704703460068F4E7000010B50D4940
:1081C000A1F59472914201D800200FE08B1ADB10C8
:1081D00003EBD3735B1002EBC30452F833308342DA
:1081E00005D802D204F10802ECE7606810BD214610
:1081F000E8E700BF08D7020008B5FFF7DFFF024B32
:10820000002808BF184608BDCAD5020010B50446AC
:10821000C0B2FFF7FFF9204610BD00000C4B1B78E1
:10822000062B10D10B4B1B681A070CD10A4B186890
:1082300000F0F003302B08D000F0E000A0F1400384
:10824000584258417047002070470120704700BFD6
:10825000E00F00F0E40F00F0E80F00F0094B1B788E
:10826000062B0CD1084B1B681A0708D1074B18685E
:1082700000F0F000A0F13003584258417047002050
:10828000704700BFE00F00F0E40F00F0E80F00F0CF
:1082900008B5FFF7C3FF28B17D4B7E4A1B68C3F3C7
:1082A00004231360FFF7DAFF10B17B4B7B4A1A609F
:1082B000FFF7B4FF28B17A4B7A4A1B68C3F3423305
:1082C0001360FFF7CBFF20B1774AD36823F08073A8
:1082D000D360FFF7A3FF40B14FF080430022C3F803
:1082E0000C21C3F81021C3F83825FFF7B7FF10B1F0
:1082F0006E4B03221A60FFF7B1FF40B16C4B0522B1
:108300001A6001229A6700229A603F225A60694BE4
:108310001B78062B50D1684B1B6819074CD1674B53
:108320001B6803F0F003502B46D14FF08052644B92
:10833000D2F80414C3F82015D2F80814C3F8241591
:10834000D2F80C14C3F82815D2F81014C3F82C1561
:10835000D2F81414C3F83015D2F81814C3F8341531
:10836000D2F81C14C3F84015D2F82014C3F84415F1
:10837000D2F82414C3F84815D2F82814C3F84C15C1
:10838000D2F82C14C3F85015D2F83014C3F8541591
:10839000D2F83414C3F86015D2F83814C3F8641551
:1083A000D2F83C14C3F86815D2F84014C3F86C1521
:1083B000D2F84424C3F87025FFF730FF28B1414BB1
:1083C000414A1B6803F04F031360FFF727FF48B1D2
:1083D0004FF08043D3F80024D20744BF6FF001026E
:1083E000C3F80024394B1B68062B08D1384B1B6897
:1083F000062B01BF374A136843F480631360364A83
:10840000D2F8883043F47003C2F88830BFF34F8F3E
:10841000BFF36F8F4FF01023D3F80022002A03DB45
:10842000D3F80432002B2FDA2C4B0122C3F8042599
:10843000D3F80024002AFBD04FF010221521C2F8F7
:108440000012D3F80024002AFBD04FF0102315228D
:10845000C3F80422214B1A46D3F800140029FBD09C
:108460000021C3F80415D2F80034002BFBD0BFF371
:108470004F8F19491A4BCA6802F4E0621343CB606C
:10848000BFF34F8F00BFFDE7164B174A1A6008BDB8
:10849000240300104035014074C007400DF0ADBA10
:1084A000440200103C050040F0ED00E0A005004053
:1084B00010560040E00F00F0E40F00F0E80F00F06D
:1084C00000C0004058020010E40E004030010010CF
:1084D000340100103C17004000ED00E000E00140D6
:1084E0000400FA05FC2A00200090D003054A4FF052
:1084F000A043105CD3F8043523FA00F0C04300F029
:1085000001007047C6DA0200044B1A5C0123934055
:108510004FF0A042C2F80C35704700BFC6DA020027
:10852000044B1A5C012393404FF0A042C2F8083577
:10853000704700BFC6DA020008B50020FFF7F0FF61
:108540000120FFF7EDFF0220FFF7EAFF0320BDE85F
:108550000840FFF7E5BF08B50020FFF7D5FF012071
:10856000FFF7D2FF0220FFF7CFFF0320BDE808404E
:10857000FFF7CABF074A4FF0A041105CD1F804359D
:108580000122824022EA03001340C1F80805C1F825
:108590000C357047C6DA0200054A4FF0A043105C64
:1085A000D3F8103523FA00F0C04300F00100704703
:1085B000C2DA02000D2809D00E2809D00F2809D0F0
:1085C00010280CBF03204FF0FF3070470020704789
:1085D0000120704702207047014B185C704700BFB4
:1085E000C2DA0200C20708B501460CD54FF0A0431D
:1085F0000322C3F84427C3F84827C3F84C27C3F81D
:108600005027FFF799FF8B070AD54FF0A0430C22A4
:10861000C3F83427C3F83827C3F83C27C3F84027EA
:1086200008BD000038B5074C051E04F1080318BF4B
:108630001C4623682BB11A6822605B68284698475D
:10864000F7E738BD7832002020B9054B01225A7077
:10865000FFF7E8BF012802D1014A9070F8E77047A0
:108660007032002020B9034B01225A70FFF7DABFA5
:10867000704700BF7032002038B50B4C237883B9A7
:108680000A486360A3602361E36000F0C7F8054611
:1086900003F002FF08B900F0CDF80123237028464B
:1086A00038BD8525FBE700BF7032002049860200F7
:1086B00037B50B4C00230DF107008DF80730FEF79E
:1086C000D1FFE368013BE360E56815B900F0C4F849
:1086D000A5709DF80700FEF7E9FF03B030BD00BFAD
:1086E00070320020012813B509D018B103281CD01E
:1086F00002B010BD0F4B0122C3F88020F8E70E4CEA
:1087000000230DF107008DF80730FEF7ABFF23784B
:108710000BB9FFF7B1FFE3689DF807000133E36091
:108720000123A370FEF7C2FFE2E700F083F8FFF732
:10873000BFFFDDE700E100E0703200201FB50378E5
:108740008DF800304368019383688DF80830C36862
:108750000393054A054B684653F8213052F821101F
:10876000984705B05DF804FB843200208832002071
:108770001FB503788DF800304368019383688DF846
:108780000830C3680393054A054B684653F8213007
:1087900052F82110984705B05DF804FB84320020A0
:1087A00088320020F0B5184B077891F81DE043F8A7
:1087B0002720164B16460A6943F82720144B03F866
:1087C00007E00C4684460FCC89B06D460FC594E88F
:1087D0000F0085E80F000497BEF1000F0AD0002EAD
:1087E0000C4A694608BF32460CF1040000F0A8FDAF
:1087F00009B0F0BD002E084A694608BF32460CF1A8
:108800000C0000F06DFBF3E788320020843200207A
:108810008C3200203D87020071870200044A1379E0
:1088200023B9012110609180184670478520704758
:1088300090320020074B1A68D2075FBFC02283F82E
:10884000002301221A604FF080430122C3F818254B
:10885000704700BF00E100E0044B01221A604FF0B6
:108860008042D2F81834DB03FBD470470C00004080
:10887000154B07B51A687AB100221A601B6800937D
:10888000009B4FF080430122C3F808230F4B587917
:1088900010B95A711B6898470D4B1A6882B10022B3
:1088A0001A601B680193019B4FF080430222C3F8BA
:1088B0000823064B1B68012003B05DF804EB184742
:1088C00003B05DF804FB00BF0001004090320020BF
:1088D0000401004000F1804000F5C040002382B058
:1088E000036003680193019B02B07047800000F1B0
:1088F000A040D0F8003723F44033C0F80037D0F858
:10890000003743EA0141C0F800177047054B4FF0AC
:10891000FF32072843F8202084BF1B1883F8482023
:10892000704700BF9832002010B5174C94F85830AB
:1089300043BB04F130032021FF22013911F0FF0174
:1089400003F8012BF9D1C8B2FFF7E0FF01310C2980
:10895000F9D1042200210D4804F07EF80C4BC0220E
:1089600083F8062340221A604FF4BE70FFF7B2FF6F
:10897000084B4FF00042C3F80423012384F8583019
:10898000002010BD0820FCE798320020EC320020C7
:1089900000E100E000600040034B93F85800003015
:1089A00018BF0120704700BF98320020F0B5374B48
:1089B0001C1894F93040002C1C4664DA8D78C5F3FD
:1089C0004005002D0BBF082300230C260826B342C8
:1089D00001D10420F0BD54F8237001373FD126188F
:1089E00044F8232086F8303015B9E21882F84800A0
:1089F0008A78550713D4D60733D5820002F1A042F6
:108A0000D2F8005725F00205C2F80057204EC508DD
:108A100000F007070122BA40775D3A4372558A7821
:108A20000D7812F0020225D09B0003F1804303F57C
:108A3000C0430202D3F8101521F4473121F44071EC
:108A4000C3F810152D04D3F8101502F4F85205F4EC
:108A500040352A430A43C3F810250020BAE7013302
:108A6000B5E74D7800F5E0724FF0A046AD0046F84E
:108A70002250CBE7083B234493F8501041EA851578
:108A800083F85050E9E70820A4E700BF983200209F
:108A9000EC32002038B51F4C251895F93020072AF4
:108AA00017DD224492F84810890903290CD14FF0B0
:108AB000A043D3F81035C34013F0010F08BF0221C3
:108AC000BDE83840FFF712BF012914BF032102217E
:108AD000F6E7D3B2072B1CD8930003F1804303F5CC
:108AE000C043D3F8100540F00100C3F8100502F1AF
:108AF0004000800080B2FFF7EDFE51B195F93030B3
:108B000054F823302BB1012303FA02F2024BC3F8CD
:108B1000042338BD98320020006000404FF0A0438D
:108B2000D3F8103523FA00F000F001007047000080
:108B30002DE9F04F85B000245A4D01944FF4807216
:108B4000012102F1804303F5C04390B21B68012B61
:108B500006D1D5F804330B4202D0FFF7BBFE0C431D
:108B60000432B2F5907F4FEA4101EAD14E4B1B68C7
:108B7000012B0AD14FF4BE70FFF7ACFE4FF0A043BB
:108B800044F00044D3F81035019314F0FF0F1AD0CD
:108B9000464F00250126344210D0AB0003F180433C
:108BA00003F5C043D3F81005D3F8101557F8253056
:108BB00023B1C1F30141C0F3042098470135082DCA
:108BC0004FEA4606E7D1002C64DA00224FF0FF336B
:108BD000CDE90223354D01274FF0000A344E5446AB
:108BE0004FF0A04816F9012B531C46D0D2B222F008
:108BF000C0094FEAD90104A8084402F0070310F89D
:108C000004CC07FA03F31CEA030F36D005EB090C7A
:108C100092099CF930C055F82CB0BBF1000F0AD175
:108C2000032A2AD10DF1080E1EF801C04CEA030CEC
:108C30000EF801C001E0032AF4D009F5E07110F844
:108C40000C0C58F821101842C1F3014105D002293B
:108C500013D1032A0BD1114604E003290DD1032AB5
:108C600005D102214846FFF741FE0134E4B2BBF1D1
:108C7000000F02D011464846D8470AF1010ABAF15E
:108C8000040FAFD134B14FF0A043019AD3F810359F
:108C9000934202D105B0BDE8F08F0193029B03938C
:108CA0009AE700BF006000407C61004098320020DD
:108CB000E8320020014B1B68184700BFF432002047
:108CC0000E4B984237B50D4602D0002003B030BDA0
:108CD00000230DF107008DF80730FEF7C3FC084BA9
:108CE0001C7914B901221D601A719DF80700FEF766
:108CF000DDFC002CE9D01120E8E700BF0020004097
:108D0000F43200200023435082B043580193019B6A
:108D100002B070470A4610B54FF48E71FFF7F2FFAC
:108D2000136A9168C95C136A01331362C0F81C1599
:108D300010BD024608B54FF492710068FFF7E2FFDC
:108D40004FF484711068FFF7DDFF136801221A6089
:108D500008BD8B690A4610B54FF4847123B9FFF73B
:108D6000D1FFD0F8183510BDFFF7CCFF536AD1689A
:108D7000D0F81805C854536A01335362F3E7000072
:108D80001FB501238DF80030044BCDE90110D3E964
:108D900000126846904705B05DF804FBFC320020E5
:108DA00030B54D4AD2F8043313F4007F85B0154630
:108DB0004FD0D2F82431002B4BD04FF49271104693
:108DC000FFF7A0FF4FF40173C2F80833434B93F849
:108DD000291009B9012151603F4902228DF8002074
:108DE000D1F88024C1F8802403929A690292DA684B
:108DF00001920022C3E906226846D3E90012904797
:108E00003548D0F81C315BB134494A690B6A9A4243
:108E10000A464BD991F82830002B47D1FFF77AFF4B
:108E20002D4AD2F8443193B14FF4A2711046FFF7A6
:108E300069FF2A4B93F8291009B1012111609A6941
:108E40002AB100229A61586AD968FFF799FF05B0E4
:108E500030BDD5F804335B07D2D5D5F80831002BE7
:108E6000CED01E4C1C482146FFF773FF636AA269EF
:108E70009A422346C4D1E269E1684AB12369E360BA
:108E80000023606AA261E3616362FFF779FFB7E7DD
:108E900094F829200AB901226A600F4A4FF4017040
:108EA000C2F8080300229A61586AEEE74FF48E7107
:108EB0000948FFF727FF5369002BB1D05169029190
:108EC000002391688DF80030019153616846D2E922
:108ED00000139847A4E700BF00200040FC320020A8
:108EE0002DE9F843564F047991462C2202FB047277
:108EF000064692F82A200D46002A40F09A805149F1
:108F00000068FFF7DDFE8046002840F09580296864
:108F10003368481C0BD04FF0A04001228A40C0F8B3
:108F2000082501F5E0724FF0030C40F822C0686894
:108F3000421C1FBF00F5E0724FF0A04C4FF0000E36
:108F40004CF822E0AA6995F814C0C3F824256A7D7C
:108F5000BCF1010F4CEA0202C3F86C25C3F81405FA
:108F6000C3F80C151DD1AA68511C1FBF02F5E07192
:108F70004FF0A0404FF0000C40F821C0E968481CB9
:108F80000BD04FF0A04C01208840CCF8080501F52B
:108F9000E0704FF0030E4CF820E0C3F80815C3F85A
:108FA00010252C236343FA18C2F804902A69FA505A
:108FB000B9F1000F2AD04FF48E7130682D7FFFF782
:108FC000A1FE30684FF4A271FFF79CFE32681E4B81
:108FD000C2F80433120B51B20029A8BF01F160405E
:108FE0004FEA4513BABF194802F00F0500F561407A
:108FF000DBB2B4BF435580F8003302F01F020123F7
:1090000003FA02F24909124B43F821203368042283
:10901000C3F800252C2303FB04730022C3E90622B6
:1090200083F829205A61012283F82A204046BDE8AE
:10903000F8834FF00808F9E74FF01108F6E700BF92
:10904000FC320020A18D02008000020014ED00E03F
:1090500000E100E02DE9F84F224F06794FF02C098E
:1090600009FB067480466569002D38D16261A160F4
:1090700025624FF48E71006884F82850FFF742FE95
:10908000D8F80000012383602146FFF743FE6368A0
:10909000A1469BB9D8F800A0D4F814B0236A9B4528
:1090A00012D8D8F80020D2F81C31002BFBD00123B5
:1090B000D3602C2303FB067300225A612846BDE8C7
:1090C000F88F94F8283043B9DAF81C31002BF8D027
:1090D00049465046FFF71EFEE0E70F25E9E7112558
:1090E000ECE700BFFC3200200379044A2C2101FB8D
:1090F00003235869003018BF01207047FC3200205C
:109100002DE9F843394E05792C2303FB0563074607
:109110005C6824B103684FF40170C3F808032C2382
:1091200003FB0563986950B1D86900283ED024B18B
:109130003B684FF40172C3F80423112433E09A61B1
:10914000D9605862D8612C2303FB056393F829305A
:109150001BB910B93846FFF7ECFD4FF02C0909FB9D
:1091600005683868D8F80430002B34D14FF4A27168
:10917000FFF7C8FDC1463868D0F82431D0F808217F
:10918000D0F84441B2B90CB9002BF4D02C2202FB28
:1091900005650022AA6123BB2CBB95F829103B680A
:1091A0000122B1B11A602046BDE8F8831961DA6185
:1091B0000120C8E7002BE9D1002CE7D14946FFF791
:1091C000C8FDD8F82430D8F818209A42D3D82346BE
:1091D000DCE75A60E7E74FF40173C0F8043300247A
:1091E000E1E70324DFE70F24DDE700BFFC320020C6
:1091F0000023435082B043580193019B02B0704753
:109200001FB501238DF80030044BCDE90110D3E9DF
:1092100000126846904705B05DF804FB2833002033
:109220007FB5454AD2F82461002E63D010464FF432
:109230009271FFF7DDFF02238DF80030D2F8803401
:10924000C2F880340393D2F83C3502933B4BDA6882
:1092500001920022C3E906226846D3E90012904732
:10926000354AD2F844317BB14FF4A2711046FFF772
:10927000BFFF324B996939B10021C3E90611D968A2
:10928000D2F83C05FFF7BCFF2B4AD2F82031B3B12E
:109290004FF490711046FFF7ABFF0123D360274BCB
:1092A000596961B1D2F84C150291002299688DF884
:1092B000002001915A616846D3E9001290471E4A86
:1092C000D2F85831A3B14FF4AC711046FFF790FFBC
:1092D0001A4B596961B1D2F84C1502910022996874
:1092E0008DF8002001915A616846D3E90012904739
:1092F00004B070BDD2F81031002BB1D04FF488719A
:109300001046FFF775FF0D4BD2F83C05996988426E
:10931000A6D1DC69D96864B1D2F8005225F02005E5
:10932000C2F800521A699C61DA60DE61FFF768FFDB
:1093300096E79C61FAE700BF002000402833002038
:109340002DE9F8435C4F06799146242202FB067210
:10935000044692F820200D46002A40F0A780574985
:109360000068FFF7ADFC8046002840F0A280296825
:109370002368481C0BD04FF0A04001228A40C0F85F
:10938000082501F5E0724FF0030C40F822C0686830
:10939000421C1FBF00F5E0724FF0A04C4FF0000ED2
:1093A0004CF822E0AA6995F814C0C3F824256A7D18
:1093B000BCF1010F4CEA0202C3F86C25C3F80C158E
:1093C000C3F814051DD1AA68511C1FBF02F5E07136
:1093D0004FF0A0404FF0000C40F821C0E968481C55
:1093E0000BD04FF0A04C01208840CCF8080501F5C7
:1093F000E0704FF0030E4CF820E0C3F80815C3F8F6
:10940000102524237343FA18C2F804902A69FA50ED
:10941000B9F1000F39D04FF4887120682D7FFFF724
:10942000E7FE4FF490712068FFF7E2FE4FF492716F
:109430002068FFF7DDFE4FF4A2712068FFF7D8FE29
:1094400020684FF4AC71FFF7D3FE22681C4BC2F8C2
:109450000433120B51B20029A8BF01F160404FEA5A
:109460004513BABF174802F00F0500F56140DBB2A3
:10947000B4BF435580F8003302F01F02012303FA02
:1094800002F24909104B43F8212023680822C3F84F
:109490000025242303FB06730022C3E906225A6138
:1094A000012283F820204046BDE8F8834FF00808E9
:1094B000F9E74FF01108F6E7283300202192020067
:1094C0001003420014ED00E000E100E001F0604311
:1094D000B3F1005F2DE9F041074638D11E4B067904
:1094E000242505FB063598466C69002C31D16A614C
:1094F000A96000684FF49071FFF77AFE4FF4AC71E9
:109500003868FFF775FE3B686A69A968C3F84415B7
:10951000C3F8482501229A606A68AAB9D3F82021C5
:10952000D3F858411AB9002CF8D00F2407E0002CCA
:10953000FBD10122DA60D3F85821002AFBD0242382
:1095400003FB0686002373612046BDE8F0811024EA
:10955000FAE71124F8E700BF283300200379044A12
:10956000242101FB03235869003018BF01207047F4
:1095700028330020F8B501F06043B3F1005F0446E2
:109580000F465ED10379304D242101FB0351486819
:1095900020B121684FF40476C1F80863242101FB4F
:1095A00003539E6956B1D969002939D020B1236887
:1095B0004FF40472C3F80423112030E09A61DF6095
:1095C000DE614FF488712068FFF712FE4FF4A2713C
:1095D0002068FFF70DFE2368C3F83475C3F83825FB
:1095E00016BB01221A602179242202FB0152526823
:1095F0000ABBD3F81041D3F84421D3F82401144313
:1096000002D10028F5D02246242303FB0155002374
:10961000984218BF03209A42AB6118BF0F20F8BDD3
:109620001F61DA610126CCE7D3F8002242F0200264
:10963000C3F80022D7E74FF40472C3F804230020D4
:10964000EDE71020EBE700BF283300200220FEF7F3
:1096500091BF00002DE9F04781460D46FEF7AAFFB5
:109660000328044604D8012D04D025B3022D2FD0A1
:10967000BDE8F087194D47003A18A918AE5C4A7842
:1096800052B1DFF86880164842464FF48041FDF73A
:10969000ECFD08B988F800903B192B449A78114BDF
:1096A0001A55002EE4D0104B1B68002BE0D030463A
:1096B000BDE8F04718470A48FDF7EFFD074B04EBFC
:1096C000440213449E78074B1B5DB342D0D1E8E7B8
:1096D000024B00EB40041C446678E2E7B033002004
:1096E00070330020C9330020C43300204C330020E5
:1096F00002210078FFF7AEBF08B5094B1B7853B1C4
:109700000020FEF70DFF0120FEF70AFF0320BDE851
:109710000840FEF705BFBDE80840FEF70DBF00BFDB
:109720004D330020F8B5894C237805461BB1002342
:109730002370FFF7E1FF172D00F2B780DFE815F087
:10974000180023002300550066007700880092006F
:10975000A300A800A300A800B000B700B700B7009E
:10976000B700B700E100E600EE00F60001010101DC
:10977000FFF7C2FF7648FDF790FD764B00220446C6
:109780001A702046F8BD0020FEF7B0FE00B300209E
:10979000FEF7C6FE0220FEF7B7FE022D22D14FF4DF
:1097A00048716C4B1D704FF400404FF47A740025E3
:1097B000E0FB01454FF4FA6200232046294602F0FF
:1097C000F5FF002201466248BDE8F840FDF74DBDB7
:1097D000FEF79AFE0220FEF7A3FE022DDFD04FF423
:1097E000C871DEE74FF47A61DBE70020FEF77EFE0A
:1097F00040B10020FEF794FE4FF44871554B032210
:109800001A70D0E7FEF780FEC821F7E70020FEF7C8
:109810006DFE38B10020FEF783FE4FF47A614D4BA8
:109820000422EDE7FEF770FE4FF4C871F7E7002061
:10983000FEF75CFE48B10020FEF772FE454B0522A4
:109840001A7040F6CD410022BDE7FEF75DFEF5E758
:109850000020FEF78FFE3F4B06221A70002240F2D6
:109860006661B0E70020FEF741FE38B10020FEF748
:1098700057FE4FF4FA71374B0722C1E7FEF744FE5B
:109880004FF47A71F7E701202070FEF773FEE5E7E9
:1098900001202070FEF76EFE00224FF4005192E787
:1098A000FEF759FE2B4B0C221A70002469E72A4858
:1098B0002A4EFDF7F2FCD5F1110504461CD0D8B9AB
:1098C000012D13D0C8235D434FF400474FF47A7045
:1098D00000214FF4FA620023C7FB050102F066FF86
:1098E000224601461C48FDF7C0FC04460220FEF754
:1098F0000BFE0123337044E70220FEF711FE002324
:10990000F8E7FFF7F9FE134B1222CDE7FFF7F4FE5D
:109910000020FEF7F9FD0F4B1322C5E7FFF7ECFE21
:109920000120FEF7F1FD0B4B1422BDE7FFF7E4FE2B
:109930000020FEF7E9FD0120FEF7E6FD054B1522AC
:10994000B2E7FEF708FE034B1D70AEE7C033002000
:1099500090330020C8330020503300204D330020C6
:10996000044B1B68DB0703D5034B1878FFF7DABEFF
:10997000704700BFBC330020C8330020032801D843
:10998000FEF70ABE00207047044B1B6813F001036A
:1099900001D0FFF7C7BE1846704700BFBC33002098
:1099A00038B51C4B18601C4B10F0020405461960BA
:1099B0001AD01A4B1A480E221A700F22DA7010228F
:1099C0009A7111225A72042140F23332FDF79EFA45
:1099D000044648B9FDF7F0FA044628B90146114A91
:1099E0001148FDF737FC0446EB0711D50120FEF7BF
:1099F000F9FD6CB921460D4A0D48FDF72BFC0446D4
:109A000030B90C4A0C480121BDE83840FDF722BCB2
:109A1000204638BDBC330020C4330020B0330020C2
:109A2000E8DA0200F19602000CDB02006199020004
:109A300010DB02004D96020008DB0200032813D859
:109A4000012A0BD1012908D100F10E02D2B200EB9C
:109A500040000C4B1A540020704700220129F6D018
:109A60004BB24BB1022901D007207047054B00EBE8
:109A7000400018444270EEE7024900EB4000084401
:109A80008270E8E7B0330020032808B512D8FEF74B
:109A9000A3FD800000F1A040D0F8003723F440334C
:109AA000C0F80037D0F8003743F44033C0F800372F
:109AB000002008BD0620FCE708B501220221002095
:109AC000FFF7BCFF08B1072810D1072202210120AF
:109AD000FFF7B4FF08B1072808D100210A22084681
:109AE000FFF7ACFF10B1072808BF002008BD000039
:109AF0000388102B10B502D0112B1ED010BD1A4CAC
:109B00002168B1B901220846FFF798FF08B107287C
:109B100024D1072202210120FFF790FF08B1072876
:109B20001CD1042202210020FFF788FF08B107287A
:109B300014D1236801332360E0E70B4A1368013B2B
:109B40001360002BDAD1FFF7B7FF0028D6D0074B00
:109B50001B68002BD2D0BDE810401847034B1B6890
:109B6000002BE6D09847E4E7D4330020D033002020
:109B700008B50020FFF788FF08B1062806D10120AC
:109B8000FFF782FF10B1062808BF002008BD0000C3
:109B90000D4B10B518600C4629B10120FFF7EEFE01
:109BA00040B102232370094B1B6853B9BDE8104034
:109BB000FFF782BFFFF7E2FE08B10B23F2E7207048
:109BC000F1E7002010BD00BFD0330020D4330020C7
:109BD00076DF70477ADF70477CDF70477FDF704742
:109BE0008FDF7047B1DF704733DF7047FDF7FAB999
:109BF00008B50020FFF7C8FE08B1FDF7F3F9FFF73D
:109C0000B7FF08B1FDF7EEF9FFF7EEFF18B1BDE8B9
:109C10000840FDF7E7B908BD0388212B13B50446BA
:109C20003BD01FD8112B28D0132B3ED0102B32D174
:109C3000264B27482749C01AC008000440F00300FB
:109C4000FCF7F0FE0720FFF79FFE08B1FDF7CAF909
:109C5000214BA1882148198002F0F0F9D8B1FDF715
:109C6000C1F918E0522B28D0562B01D03B2B12D132
:109C70001321A088FFF7ACFFF0E7144B14481849F4
:109C8000C01AC008000440F00300FCF7CBFE124BE2
:109C90004FF6FF721A8002B010BD002301A9808820
:109CA000ADF80430FFF79CFFD8E70B4800231A46B5
:109CB00085210088FFF792FFD0E7074800231A4666
:109CC00019460088FFF78EFFC8E700BF3CD30200AB
:109CD00064D3020031DB0200062B00201C39002077
:109CE0003BDB02000D4B4A881B889A4214D10A883C
:109CF00040F677239A420FD18B88094A09480A49CE
:109D0000033B9BB21380094A801AC00800041A461C
:109D100040F00300FCF793BE704700BF062B002005
:109D2000042B002064D3020092DB02003CD302002B
:109D300008B503784BB9054B3B211888FFF748FF5E
:109D400018B1BDE80840FDF74DB908BD062B00204D
:109D5000043838B50D2849D8DFE800F03248483ECD
:109D600048482E48484807070707214B214C1A78D6
:109D7000214D92B100221A70FEF7DEFB01F004F8CB
:109D800008B1FDF72FF9601BC0081C49000440F022
:109D90000300BDE83840FCF745BE01221A70FEF70B
:109DA000DAFB642000F0E4FF08B1FDF71BF9601B4B
:109DB000C00800041249EAE7BDE83840FFF718BFC1
:109DC000104B13211888FFF703FF30F008030DD064
:109DD000BDE83840FDF706B90A4B1A884FF6FF7305
:109DE0009A4203D1084801F0E0FCEEE738BD00BF1D
:109DF0002839002064D302003CD3020048DB020073
:109E00006DDB0200062B0020D034002008B548B1DD
:109E100003280BD10220FFF7B7FD38B1BDE8084099
:109E2000FDF7E0B8BDE80840FFF7E2BE08BD00005E
:109E30000378012BF7B534D01BB1022B31D003B01E
:109E4000F0BD1A4C1A4D20782844FDF7CDFB23783D
:109E50000133DBB21D44237015F8012C0A2A05D00A
:109E60000D2A03D0134A12889A42E8D8012B15D93B
:109E7000114D0F4E114F2378ADF806300DF106024B
:109E80002B883146384602F04BFA082806D01328B2
:109E9000F1D0052802D008B1FDF7A4F80023237003
:109EA000CDE74068FDF79EF8C9E700BFCC3400203D
:109EB000D8330020042B0020062B0020082B002084
:109EC0002DE9F0410578064645BB154C154BDFF8EA
:109ED0005880E41AE408240444F00104B28A95424C
:109EE0000AD33369134413F8013C0D2B16D10A2011
:109EF000FDF790FB1128F9E73369585DFDF78AFB00
:109F0000074648B11128F7D0024641462046FCF7E3
:109F10008DFD3846FDF766F80135DFE7BDE8F081D5
:109F200064D302003CD3020016DC0200FDF75AB8ED
:109F300008B50849084801F06DFF08B1FDF752F86F
:109F4000F721054801F07AFF18B1BDE80840FDF798
:109F500049B808BDE59C02000439002000B5BD4D9C
:109F60000FCDB1B005AC0FC495E80300BA4BBB4AA6
:109F700001934FF4807384E80300CDE90323029337
:109F8000B74A072301A905A8FDF7D6FA08B1FDF7DE
:109F900029F84FF480410020FCF780FB08B1FDF761
:109FA00021F8FCF7B1FAFDF723F908B1FDF71AF82B
:109FB000AC490320FFF7F4FC08B1FDF713F805A93D
:109FC0000020FFF7E5FD08B1FDF70CF8FEF774F887
:109FD00008B1FDF707F802F021FA08B1FDF702F821
:109FE000002305A90120059302F0A6FA08B1FCF7A9
:109FF000F9FF05A802F070FB08B1FCF7F3FF11238D
:10A0000099488DF8043002F07CFD974982B201A88E
:10A01000FFF7E2FD08B1FCF7E5FF0822002105A8E3
:10A0200002F01AFD91484FF0C873CDE9050305A869
:10A03000FFF7D0FD08B1FCF7D5FFFFF779FF8C4B98
:10A040008C48059305A901F0E7FF08B1FCF7CAFFAA
:10A05000042200210DEB020002F0FEFC864B874833
:10A06000019301A902F0E6F808B1FCF7BBFFAC22AE
:10A07000002105A802F0F0FC02238DF814304FF403
:10A08000C063ADF8163001234021ADF860308DF883
:10A0900090300023CDE92713794A7A4B7A481992F8
:10A0A00005A92E9301F0C1F908B1FCF79BFF01212E
:10A0B000754801F0B7F91C22002105A802F0CCFC7C
:10A0C00000234FF4A032CDE90532ADF822304FF431
:10A0D000F0228DF824306D4B07920A9303226C4BCB
:10A0E0008DF8202005A80B9301F07CFC08B1FCF74B
:10A0F00079FF684B684918681B798DF80830674B01
:10A100000190D3F81C250A40C3F81C25D3F81C2560
:10A1100042F4473242F44072C3F81C25D3F81C25A0
:10A1200042F00302C3F81C25D3F818250A40C3F8EF
:10A130001825D3F8182542F4981242F48852C3F82F
:10A140001825D3F8182542F00302C3F81825D3F8D0
:10A1500014250A40C3F81425D3F81425504942F4B5
:10A16000443242F44072C3F81425D3F8142542F067
:10A170000302C3F8142503F5C8334A4AC3F810256F
:10A18000A2F5A032A2F5A272C3F814250122C3F8E9
:10A190000425454AC3F86025C3F864154FF480616F
:10A1A000C3F80415C3F86825A2F58242443AC3F8FF
:10A1B0006C254FF40062C3F8042540F20123ADF88A
:10A1C0001A303A4A3A4BCDE90723A3F58033099375
:10A1D00003F5E0430A9303F5C0430B9317238DF86F
:10A1E00030300522502301A90DF115008DF81430EF
:10A1F00002F009FC05A800F08FFC08B1FCF7F2FEA4
:10A2000000F0ACFC08B1FCF7EDFE2A4B2A4C2B49C0
:10A21000E41AE408240444F003042046FCF702FC9A
:10A22000274802F0BFFB20462649FCF7FBFBFEF760
:10A2300092F9642000F09CFD08B1FCF7D3FE22499E
:10A240002046FCF7EFFBFCF783FA0028FBD1FDF773
:10A2500049FFF8E714DB020029390020293A0020E1
:10A26000319E0200519D0200AEDB020010003C0056
:10A27000ED9B02001C390020C19E0200082B00202B
:10A28000002B00200D9E0200D0340020319D0200E2
:10A290002D9F02002CDB0200FFE0ECFF006000407D
:10A2A0000860004050A1014048A10040030405009F
:10A2B00000A001403CD3020064D30200BADB0200DC
:10A2C000DBDB0200EDDB02006DDB020032DF7047FA
:10A2D00042DF704748DF704749DF70474ADF704709
:10A2E0001D4B10B5002201240321C3F80C25C3F82F
:10A2F0001045C3F85046C3F834156FF07F41C3F8DA
:10A300003C151649C3F838151549C3F81425C3F888
:10A3100018151449C3F804054878C3F82405D1F882
:10A32000020000BAC3F81C05C3F82C25C3F8304559
:10A330000978C3F808150421C3F80C15C3F80C21DB
:10A340004FF0FF32C3F808230822C3F80423064B5A
:10A3500002221A6010BD00BF001000402110010051
:10A360000D0D04013C3B002000E100E00C490D48CC
:10A370000A7AD30003F1804303F5F833C3F81005DC
:10A38000C8684430C3F814050B69074902F5117019
:10A39000443341F8203001239340C1F8043570471D
:10A3A0003C3B00200411004000F0014008B5831E32
:10A3B0000246062B4DD8DFE803F018180404193ABA
:10A3C0002B002A48FFF78AFF08B1FCF70BFE284B49
:10A3D00028482949C01AC008000440F00300FCF7CF
:10A3E00021FB264A13680133136008BD204B214826
:10A3F0002349C01AC008000440F00100FCF712FB1A
:10A40000204A21484FF42B71BDE80840FCF7F7BD06
:10A410001E4B18481E4900221A70154BC01AC0085E
:10A42000000440F00300BDE80840FCF7FBBA104B05
:10A4300010481849C01AC008000440F00300FCF797
:10A44000F1FAFFF749FF0028CFD0BDE80840FCF73C
:10A45000C9BD0748074B10491B1ADB081B0443F012
:10A460000300BDE80840FCF7E1BA00BF3C2B002028
:10A470003CD30200BCD30200BADD0200343B002012
:10A48000D2DD020001DE020078563412273C0020A3
:10A4900055DE020074DE020091DE0200144BD3F898
:10A4A000002110B51AB300241249C3F80041CB7A39
:10A4B0001148DB0003F1804303F5F83301225A60B1
:10A4C0000E4B1A68CB680E49D3F84835401AC008BD
:10A4D00000040C4940F00300FCF7B1FA0A4B0B48AA
:10A4E0001C700B4BBDE810401968FDF757BB10BD41
:10A4F000007001403C3B0020BCD30200383B0020F0
:10A500003CD3020029DD0200263C002028D30200B3
:10A510002C3C0020F8B5304B304A1878304B31498C
:10A520001E68314B1B6817680C683049096815684C
:10A53000C3EB4703C1EB450121443344B3FBF1F3C3
:10A5400007EE903A2A4BF8EE677AC0B2C3ED007A74
:10A5500093ED007AF7EE007AB4EEE77AF1EE10FAB6
:10A56000114637DC93ED007AB4EEE77AF1EE10FA9B
:10A570004CBF4FF0FF32002252B24BF680331D4CDD
:10A580009A1A0A60E16801254D60C1F840251A4A0F
:10A590000D6052F82000184490FBF3F203FB120206
:10A5A0009A428ABFA2F53B439B1A803BC1F84835CB
:10A5B000D1F8483511481249401AC0080004114921
:10A5C00040F00300FCF73BFAE27A0F4B012143F81D
:10A5D0003210F8BD0122D0E7293B00202C2B0020AF
:10A5E000443C00202C3B00203C3C0020343C00201C
:10A5F000602B00203C3B0020503C0020BCD30200DC
:10A600003CD30200E3DC020000F001402DE9F04FF2
:10A610004F4DD5F80C3185B0002B6ED00027C5F812
:10A620000C71D5F80C314B4C4B4B4C4E4C4932789D
:10A63000E41AE408240444F003042046FCF7F6F985
:10A640003378012B56D1D5F80034DB0752D5D5F835
:10A650000465444D336872684349DFF844B1DFF85C
:10A660004481DFF844A12046FCF7E9F92B78327BDE
:10A670003E490133DBB22B702B78042B3C4B08BFD7
:10A680002F701A70DBF80C30D6F80890D3F84425F8
:10A69000384B1A601B68039309F2CB19204609EB6B
:10A6A0000307FCF7BFF92A78039B7F08D2B2F91A97
:10A6B00048F82210304A1360304A17602A78D2B224
:10A6C00058F822203AB12A78D2B258F822104BF624
:10A6D0008032914214D12A492046FCF7A3F9294B34
:10A6E00029491A6801321A601A689AF8003020461F
:10A6F000FCF7A5F9164B01229A6005B0BDE8F08F72
:10A700004A46224900972046FCF7A3F92B782049B6
:10A71000DBB2204658F82320DBF80C30D3F848355C
:10A72000FCF78DF91B4B01221A701B4B1E60FFF7C3
:10A73000F1FE1A48FDF70EFA054608B9FCF752FC7F
:10A74000034BC3F8045501238AF80030C7E700BF64
:10A7500000100040BCD302003CD302005E3B00204E
:10A7600041DC0200293B002055DC020083DC0200B2
:10A770005C2B00202C3B0020403C0020443C00206F
:10A7800096DC0200603B002001DD0200A7DC020035
:10A79000DDDC0200263C00202C3C002028D30200F7
:10A7A0003C3B0020503C00205D3B00202DE9F04167
:10A7B000042800F25C81DFE810F00500EE003C01A7
:10A7C000B5003F01B24DB34CEB68B349B34F01261E
:10A7D0005E65D3F85425B24B1A60B24AA41AE40855
:10A7E000240444F003041A682046FCF71FF9AE4B1A
:10A7F000AE495E604FF000084FF48032DE60C3F86F
:10A800000485C3F84081C3F84481C3F8042340F6AB
:10A81000C412C3F8402540F2E242C3F844250222A4
:10A82000C3F808251E60A24BC7F8FC6F4FF4807276
:10A830001A60A04EA04BC3F8008033780133DBB21E
:10A84000337032782046FCF7F1F89C4A337812785E
:10A850009B4E9A4240F084809A4B1B78002B7FD00D
:10A860003378DBB2012B5FD09748FDF773F90746C9
:10A8700008B9FCF7B7FBAA7A9449D30003F18043E7
:10A8800003F5F83302F51170C3F81015E968443187
:10A89000C3F814152B698E494FF00108443308FAA8
:10A8A00002F241F82030C1F804253846FFF718FDC0
:10A8B0007A4B0322C3F80022C3F80080D3F80021AA
:10A8C000002A3AD00022C3F80C21EB68814AD3F861
:10A8D00044351360804B814993ED007A1368F7EE9D
:10A8E000007AB4EE677AF1EE10FA28D17C480B605A
:10A8F00003687C4D013303603B607B4B1B687B60CE
:10A900000B68BB602B783B730223337012680B68B3
:10A9100076492046FCF793F82B780BB100232B7077
:10A92000734B1B78734882E0C7F810813B61D7F8FE
:10A930001031002B98D100BFF9E700BFBEE76E4889
:10A940006E4D00682D682B4403F5BB3303F580730F
:10A950001B1A4BF68035B3FBF5F005FB1033C5E74A
:10A960003378012B04D14D4BD3F85035032BD9D07C
:10A970005548FDF7EFF8044608B9FCF733FB2046CD
:10A98000FFF7AEFC454B0124C3F800425C60FFF7C3
:10A99000EDFC3470C6E7444BD3F84021002A48D080
:10A9A000D3F80423D20344D5002401225A60C3F80B
:10A9B0004041D3F84011C3F84441D3F84431374BF8
:10A9C000334D1A614FF0FF31C3F80813297A3E481E
:10A9D0008A403F49C1F80825D3F80415FDF7DEF891
:10A9E000354B2C481C60364B1C70454B1C603C4B57
:10A9F0001C60304B1A78082A01BF1C702F4B0222B2
:10AA00001A70EB6801225A65254AD3F85415116073
:10AA100024491268D3F84835401AC008000440F0B1
:10AA200003003849FCF70BF8264B37481B78BDE884
:10AA3000F081FFF7EBFD75E71B4B00220121596008
:10AA4000C3F84021C3F84421D3F8402502F2CF32A5
:10AA5000C3F84025D3F8442502F2CF32C3F8442589
:10AA6000154A1960136803F57A7313605AE7274A89
:10AA7000274840F28311FCF7C2FA0A4B05482549E2
:10AA8000C01AC008000440F00300FBF7CBFF49E701
:10AA90003C3B0020BCD302003EDD02000010004021
:10AAA0004C3C00203CD30200008000404DDD020001
:10AAB00000E100E05C3B0020283C0020642B0020EB
:10AAC0005E3B00206C3B002028D3020000110040B8
:10AAD00000F00140303B0020602B0020483C00206B
:10AAE000703B00205D3B0020302B00205ADD02002F
:10AAF0005C2B0020643B0020383C0020303C0020D0
:10AB0000603B002075DD0200342B002001DE0200D6
:10AB1000785634128BDD020010B50D4C0146202210
:10AB2000204601F070FFE3687BB163696BB1A269F5
:10AB3000084B9A4209D10848FCF7F5FF034610B1CB
:10AB4000FCF750FA0023184610BD0723FBE700BFAF
:10AB50003C3B00200070014028D302002DE9F84F53
:10AB6000754D2B78002B40F0E580FFF7B1FB0446D4
:10AB7000002840F0D380FFF7A9FB0446002840F0EE
:10AB8000CD806E48FFF7A6FB0446002840F0C68043
:10AB90006B48FFF7A3FB0446002840F0BF80694BD9
:10ABA00069486A49C01AC008000440F00300FBF776
:10ABB00039FF67494E7ACB680A69F00000F180409E
:10ABC00000F5F83003F5A47902F10807C0F81095F4
:10ABD000C0F814755F4806F5117703F10C0B40F8C7
:10ABE0002740012707FA06F6C0F8046591F806A089
:10ABF00091F807E091F80BC04FEACA0606F18046CB
:10AC000006F5F83607FA0AF8C0F80885C6F8109570
:10AC1000C6F814B54FEACE060AF5117A06F1804659
:10AC200006F5F83640F82A4007FA0EFAC0F808A5EB
:10AC3000C6F81095DFF834914FEACC0B0EF5117E73
:10AC4000D944C6F814958E6940F82E6000EBCC0EFE
:10AC50000CF5007C48EA0A08CEF8047040F82C8015
:10AC600091F91C005FFA80FC0CF01F018F40410934
:10AC7000890001F1604101F561410028C1F880714E
:10AC80004FDA35480CF00F0C60444FF0E00C80F8C0
:10AC900018C00F6001214FF0FF37C6F80873C6F8DF
:10ACA00004132E4E002030602D4E30702D4E4FF08C
:10ACB000FF0C307003265160D160C2F81005C2F855
:10ACC0000415C2F80865C2F848C54FF0040CC2F874
:10ACD00000C211604BF680325960D960C3F810058C
:10ACE000C3F80865C3F84025C3F84475C3F8482580
:10ACF0001D4AC3F84C75934203D002F5805293422B
:10AD000007D145F6C052C3F850254FF0FF32C3F8C3
:10AD100054250122C3F800221A602A702046BDE89B
:10AD2000F88F00F1604000F561404FF0E00C80F8D2
:10AD300000C3AEE70824F1E7273C0020ADA70200DE
:10AD40003C2B00203CD30200BCD30200A8DD020053
:10AD50003C3B002000F00140FCEC00E0343B0020D4
:10AD60006C3B00205E3B002000A0014004F001404D
:10AD7000034B01221A70034B00201870704700BF6C
:10AD80006C3B0020263C0020014B002018707047CF
:10AD90006C3B00200369C1688B429DBF8268D2185A
:10ADA00002F1FF3203F1FF3394BF501A581A704773
:10ADB0002DE9F041D0E9027405463E1B40689642F9
:10ADC00020448846144404D901F01DFEEC60BDE81F
:10ADD000F0813246E41B01F016FE224608EB060124
:10ADE0006868F1E72DE9F843C568064689461746C5
:10ADF0004FF000083469B3687068A54228BFE418B2
:10AE0000013C621B5C1BBC4228BF3C46944228BFED
:10AE1000144649462844224601F0F5FDB36825440E
:10AE2000AB4208BF00253F1BA044A144F560E1D11F
:10AE30004046BDE8F883000010B5114C114AA261EC
:10AE40000223C4E90433104BE361A2644FF400739E
:10AE50000E4A2362E264002310220D49A362E01D22
:10AE60006362E362A3656365E365226501F027FE23
:10AE70000849204601F023FE2023A37110BD00BF26
:10AE8000603C0020A1DE0200E83C0020D83C00200D
:10AE9000AADE0200AEDE0200F8B5184C182300FB53
:10AEA000033503FB00402544C46A012C0F461646B7
:10AEB00011D024B1022C1BD000242046F8BD284616
:10AEC000FFF768FFB042F8D3324639462846FFF70D
:10AED0006FFF3446F1E72846FFF75CFF86423446B1
:10AEE00028BF0446224639462846FFF761FFE4E7BB
:10AEF0002846BDE8F840FFF775BF00BF603C002062
:10AF0000FFF79ABF6DDF704779DF70477DDF7047CD
:10AF100064DF70472DE9F04F85B000250E9CBDF829
:10AF20003CB027880191804691469A462E46B8F853
:10AF30000020B2420CDC3DB12288013AD21B92B211
:10AF4000FF2A3BD80AF80720002005B0BDE8F08FA3
:10AF5000D8F8042052F82600039000220DF10B01CE
:10AF600003A8FFF7D5FF0028EFD19DF80B204A4535
:10AF700022D12288002D14BF0020022002EB0901FB
:10AF8000014459451ADC45B9013292B2019B228035
:10AF90000AF8023022880132228022880DF10B014A
:10AFA000524403A8FFF7B4FF0028CED121889DF8B2
:10AFB0000B200A44228001250136B8E70C20C4E7A3
:10AFC0002DE9F341089CBDF824501746CDE9004512
:10AFD000022206469846FFF79DFF50B943461022CD
:10AFE00039463046CDE9084502B0BDE8F041FFF7EB
:10AFF00091BF02B0BDE8F0812DE9F04F0023168823
:10B00000138090F82D3085B007460D46144653B393
:10B01000082E01D80C2027E102A8FFF773FF0028B3
:10B0200040F0228123880822EA54238801339BB20E
:10B030001B222380EA542088013080B2208006221F
:10B040000DF10901284401F0DEFC23889DF8082059
:10B0500006339BB212F0FE0218BF01222380EA548D
:10B06000238801332380BB78FBB123880433B342A8
:10B07000D0D802A8FFF748FF002840F0F5802388C9
:10B080000322EA54238801339BB219222380EA5415
:10B090002388BDF8082001339BB2E9182380EA54C5
:10B0A000120A4A70238802332380FA789AB12388DF
:10B0B000D91CB142AED80221E954238801339BB296
:10B0C00001212380E95423880B449BB22380EA5456
:10B0D00023880B4423807A68AAB12388D91CB14203
:10B0E00098D8022192F90020E954238801339BB2B9
:10B0F0000A212380E954238801339BB22380EA5438
:10B100002388013323803B89002B40F0A1803B8AB8
:10B110005BB1CDE900462B460722032107F1100061
:10B12000FFF74EFF002840F09F803B8B5BB1CDE9DD
:10B1300000462B461522142107F11800FFF740FFA7
:10B14000002840F091803A6A002A40F09080D7F8B9
:10B150002480B8F1000F30D0B8F804302188981C52
:10B160008A1C0244B2423FF655AFFE283FF652AF6A
:10B1700003336B54238801339BB2FF222380EA54AC
:10B18000238801339BB22380B8F80020EA54E918E1
:10B19000120A4A702088023080B22080B8F8042059
:10B1A0005AB1D8F8081000296BD0284401F02BFCC4
:10B1B0002388B8F804201344238097F82C30002B00
:10B1C00040F09A80387800284ED03B88012B58D028
:10B1D000228802F1020CB4453FF61CAF012805D1CC
:10B1E0007B78023313449E42FFF414AF023EB61A3A
:10B1F000B6B202A905EB0C00ADF80860FFF786FEB9
:10B2000090BB3978BDF80820022900F0BA807B781D
:10B21000934202D3B24240F2B280012940F0B3809F
:10B220009BB29E42C0F0AF80ADF808300821BDF857
:10B230000830FE2B3FF6EEAE22880133AB54228855
:10B24000013292B22280A9542288134423800BE059
:10B25000CDE900462B460622022107F10800FFF740
:10B26000AFFE00283FF453AF05B0BDE8F08FB4F84F
:10B2700000C00CF10603B3423FF6CCAE118805299D
:10B2800001D80720F0E76FF4486E01EB0E039BB284
:10B290004FF27D3E7345F4D95388052BF1D96FF4F5
:10B2A0004860181880B27045EBD94FF6FF708142A4
:10B2B00003D0834201D09942E3D8052305F80C302E
:10B2C000238801339BB212212380E9542388013360
:10B2D0009BB223801188E954E818090A4170238839
:10B2E00002339BB223805288EA54E918120A4A704A
:10B2F0002388023323802AE7BB6A002BC1D04FF09A
:10B3000000094FF00C0A4FF0160B97F82C305FFA3B
:10B3100089F293427FF656AFB96A0AFB02F201EB5B
:10B320000208B8F80430981CFE283FF673AE208857
:10B3300003332B54238801339BB2238005F803B0D9
:10B34000238801339BB223808A5AEA54E918120AEF
:10B350004A702088023080B22080B8F804205AB1A8
:10B36000D8F8081000298CD0284401F04CFB238821
:10B37000B8F804201344238009F10109C5E7092125
:10B3800055E7B242FBD9ADF808604FE770B5E0B1C0
:10B390004AB116880024B44203D305196D789D4242
:10B3A00008D0A14201D800200FE0055D01352C44F2
:10B3B000A4B2F0E7A142F6D9005DA31C01389BB20C
:10B3C00080B21C188C42EEDC138070BD13B50023D4
:10B3D000ADF8063013460DF106020446FFF7D6FF1E
:10B3E00010B1BDF80600204402B010BD72DF7047F6
:10B3F00073DF704774DF704738B5012204460D468D
:10B40000B0F81414D0F81004FFF7E0FF00B1057095
:10B4100004F13C0204F5826104F15400BDE83840B7
:10B42000FFF7E4BF80F830107047F8B504460F46C8
:10B43000002975D0002873D091F87A301BB191F8AB
:10B440009830002B6ED1D7F8A030042B6AD0D7F8F3
:10B450009C30042B66D007F178060FCE4FF0000C1D
:10B46000251D84F802C00FC50FCE0FC596E8070052
:10B4700085E8070084F830C0D7F8A4306363D7F8B4
:10B48000A830A3634FF6FF7504F58263C4F8203437
:10B49000A4F824540722614604F2264001F0DCFAA5
:10B4A00023780BB984F8545094F82430002B14BF3F
:10B4B000EE231F2304F15501C4F81014A4F814342A
:10B4C00004F214423846FFF797FD40BB94F824304D
:10B4D000002B14BFEE231F2304F23121C4F81814EB
:10B4E000A4F81C3404F21C4207F13C00FFF784FD71
:10B4F000A8B9A369A4F848304FF480730125A4F8D3
:10B50000503063692064014684F83C50636404F160
:10B510003C0204F15400FFF769FF00B92570F8BD43
:10B520000E20FCE70720FAE7F8B5077804460D4639
:10B53000002F00F0038100F22646A17007220021AF
:10B54000304601F089FAE38813B1A378012B04D0C7
:10B55000E3794BB1A378022B06D1636BA3B101222F
:10B5600084F82D2408209847334604F22C4113F820
:10B57000012F12B98B42FAD117466B1E032B51D8FB
:10B58000DFE803F0050B0F1284F82D34ECE7A37904
:10B590001BB194F8243003B95FB9E3790BB1002FE4
:10B5A00042D1237A002B41D1637A002B0CBF0025B6
:10B5B0000425636BA570002B3AD0033D012D37D8CD
:10B5C0006279AAB394F82E2492BB84F83024012225
:10B5D00084F82F240720984704F13C051822002105
:10B5E000284601F039FAE26A531E0121022B28BFD6
:10B5F0000A4684F8512094F8242084F83C1032B193
:10B60000A36A581E022828BF0B4684F85230A1783E
:10B61000002384F8503004291BD8DFE801F0770DAF
:10B62000223559000025C4E70225C2E70325C0E7FB
:10B63000002384F82F34CFE7C4F82034C4E9106322
:10B640000223012284F83C30802384F83120A4F8BE
:10B650004830A378002B5CD1636B002B6AD10020AB
:10B6600067E00223002A84F8313014BF0723032344
:10B6700084F83C302369A4F848300023C4F820340F
:10B68000E36826646364E4E763696364A369A4F818
:10B69000483012B1062384F83C306379B3B194F892
:10B6A0002E349BB994F8303483B1022384F850309F
:10B6B00004212046FFF7A0FE0028CAD1052384F804
:10B6C000313004F58263C4F82034C2E70323F6E77F
:10B6D000E3696364236AA4F8483012B1062384F84E
:10B6E0003C30637983B194F82E346BB994F83034DC
:10B6F00053B1022384F8503004212046FFF77CFE2A
:10B700000028A6D10623DAE70423D8E784F83130ED
:10B710009FE72A46D4F8201404F15400FFF766FE90
:10B7200038B994F8301094F85400FFF761FE0028FF
:10B7300092D0F8BD94F83100984790E70820F8E7D8
:10B740000388112B10B50C460AD0262B1FD0102BC6
:10B7500005D1C37B012B02D18388A1F8243410BD0D
:10B760000022838881F82E24B1F824249A42F6D14D
:10B770000B79002BF3D101212046FFF7D5FE0028DD
:10B78000EDD0A36B002BEAD0BDE810401847037A38
:10B79000013B012BE3D8897805230131B1FBF3F399
:10B7A00003EB8303C91AC9B2E6E738B5044690F83B
:10B7B0005400FFF71FFE012384F82E34002384F881
:10B7C000303484F8503006212046FFF715FE054638
:10B7D00038B9A1782046FFF7A7FE10B1A36B03B1DB
:10B7E0009847284638BD75DF704776DF70477ADFA7
:10B7F00070477BDF70470000034B1A8882420CBF02
:10B8000018460020704700BF043F0020024B9B6990
:10B8100003B11847704700BFE83E002073B586B2F9
:10B820003046FFF7E9FF044670B1164D027A2B7BD4
:10B830009A420BD200F10A013046FFF7D4FFE8B17B
:10B84000112801D0FFF7E2FF02B070BD00230372A0
:10B850002B7C43B13B213046FFF7C7FF30F0080394
:10B8600001D0FFF7D3FF6B69002BEDD000228DF8DC
:10B870000420ADF8066001A89847E5E7237A013374
:10B880002372E1E7E83E002013B50B46497A0F4CDE
:10B89000024669B9D4E901101C7A002C18BF014690
:10B8A0005868FBF7E2FC08B1FFF7B0FF02B010BD2B
:10B8B000002119726369002BF8D00121ADF8060050
:10B8C0008DF8041001A89847F0E700BFE83E00207B
:10B8D0004B8802889A4213D842889A4210D38088B3
:10B8E0008A8840F2F313984294BF031AC31A934212
:10B8F00006D800F2F310904234BF002001207047B8
:10B90000002070470388112B70B5014648D002D83B
:10B91000102B1ED070BD122B52D0502BFAD12F4BB2
:10B92000C288DB899A42F5D1038A022BF2D186883C
:10B930003046FFF761FF05460028EBD001F1120009
:10B9400000F079F930BB6868FBF7A7FC0028E1D06C
:10B9500009E0C37B012BDDD14FF6FF70FFF74CFFF1
:10B96000054620B90420BDE87040FFF74FBF1C4AD0
:10B970008E880680002303721368C5F80A300A30E7
:10B98000536843601031FFF7A3FF144B6872DB89E3
:10B99000002BBFD129463046BDE87040FFF774BF89
:10B9A0008088FFF729FF04460028B3D04068FBF7E2
:10B9B00074FC08B1FFF72AFF4FF6FF732380A9E755
:10B9C00086883046FFF718FF05460028A2D00831C8
:10B9D0000A30FFF77DFF6872DCE700BFE83E002019
:10B9E000183F0020F8B5064648B305460FCD154F61
:10B9F0003C460FC495E8070084E807003068124C05
:10BA00003C60B0B1FFF7F3FEC0B932681368236041
:10BA1000536863600D480E4A4FF6FF7303800D4B69
:10BA200040F8043F0021FBF715FC002818BF032055
:10BA300004E02046FFF7DDFE0028EBD0F8BD0E2025
:10BA4000FCE700BFE83E0020183F0020043F002034
:10BA50001DB80200203F00200AB1FCF701B8FCF736
:10BA600008B873B50191019C06466CB100252C46BF
:10BA7000294601A8FCF707F818B106EB4403013486
:10BA80009D800135142DF3D13046346002B070BD75
:10BA90002DE9F04703888488103B8CB005460A2BBB
:10BAA0001FD8DFE803F0063F1E1E1E1E1E1E1E5F6F
:10BAB0004400314EB368DB43009371686846FCF77D
:10BAC0000BF8009901A8FFF7CCFF0DF108094FF022
:10BAD0000008019B984507D3132C13D90420FBF7CA
